{
	"contracts/NFTMarketPlace.sol": {
		"NFTMarketPlace": {
			"abi": [
				{
					"inputs": [],
					"stateMutability": "nonpayable",
					"type": "constructor"
				},
				{
					"inputs": [],
					"name": "ReentrancyGuardReentrantCall",
					"type": "error"
				},
				{
					"anonymous": false,
					"inputs": [
						{
							"indexed": true,
							"internalType": "address",
							"name": "buyer",
							"type": "address"
						},
						{
							"indexed": true,
							"internalType": "address",
							"name": "nftAddress",
							"type": "address"
						},
						{
							"indexed": true,
							"internalType": "uint256",
							"name": "tokenId",
							"type": "uint256"
						},
						{
							"indexed": false,
							"internalType": "uint256",
							"name": "price",
							"type": "uint256"
						}
					],
					"name": "BuyItem",
					"type": "event"
				},
				{
					"anonymous": false,
					"inputs": [
						{
							"indexed": true,
							"internalType": "address",
							"name": "seller",
							"type": "address"
						},
						{
							"indexed": true,
							"internalType": "address",
							"name": "nftAddress",
							"type": "address"
						},
						{
							"indexed": true,
							"internalType": "uint256",
							"name": "tokenId",
							"type": "uint256"
						}
					],
					"name": "CancelListing",
					"type": "event"
				},
				{
					"anonymous": false,
					"inputs": [
						{
							"indexed": true,
							"internalType": "address",
							"name": "seller",
							"type": "address"
						},
						{
							"indexed": true,
							"internalType": "address",
							"name": "nftAddress",
							"type": "address"
						},
						{
							"indexed": true,
							"internalType": "uint256",
							"name": "tokenId",
							"type": "uint256"
						},
						{
							"indexed": false,
							"internalType": "uint256",
							"name": "price",
							"type": "uint256"
						}
					],
					"name": "ItemListed",
					"type": "event"
				},
				{
					"inputs": [
						{
							"internalType": "address",
							"name": "nftAddress",
							"type": "address"
						},
						{
							"internalType": "uint256",
							"name": "tokenId",
							"type": "uint256"
						}
					],
					"name": "buyItem",
					"outputs": [],
					"stateMutability": "payable",
					"type": "function"
				},
				{
					"inputs": [
						{
							"internalType": "address",
							"name": "nftAddress",
							"type": "address"
						},
						{
							"internalType": "uint256",
							"name": "tokenId",
							"type": "uint256"
						}
					],
					"name": "cancelListing",
					"outputs": [],
					"stateMutability": "nonpayable",
					"type": "function"
				},
				{
					"inputs": [
						{
							"internalType": "address",
							"name": "nftAddress",
							"type": "address"
						},
						{
							"internalType": "uint256",
							"name": "tokenId",
							"type": "uint256"
						}
					],
					"name": "getListing",
					"outputs": [
						{
							"components": [
								{
									"internalType": "uint256",
									"name": "price",
									"type": "uint256"
								},
								{
									"internalType": "address",
									"name": "seller",
									"type": "address"
								}
							],
							"internalType": "struct NFTMarketPlace.Listing",
							"name": "",
							"type": "tuple"
						}
					],
					"stateMutability": "view",
					"type": "function"
				},
				{
					"inputs": [
						{
							"internalType": "address",
							"name": "seller",
							"type": "address"
						}
					],
					"name": "getProceeds",
					"outputs": [
						{
							"internalType": "uint256",
							"name": "",
							"type": "uint256"
						}
					],
					"stateMutability": "view",
					"type": "function"
				},
				{
					"inputs": [],
					"name": "i_owner",
					"outputs": [
						{
							"internalType": "address",
							"name": "",
							"type": "address"
						}
					],
					"stateMutability": "view",
					"type": "function"
				},
				{
					"inputs": [
						{
							"internalType": "address",
							"name": "nftAddress",
							"type": "address"
						},
						{
							"internalType": "uint256",
							"name": "price",
							"type": "uint256"
						},
						{
							"internalType": "uint256",
							"name": "tokenId",
							"type": "uint256"
						}
					],
					"name": "listItem",
					"outputs": [],
					"stateMutability": "nonpayable",
					"type": "function"
				},
				{
					"inputs": [
						{
							"internalType": "address",
							"name": "nftAddress",
							"type": "address"
						},
						{
							"internalType": "uint256",
							"name": "tokenId",
							"type": "uint256"
						},
						{
							"internalType": "uint256",
							"name": "newPrice",
							"type": "uint256"
						}
					],
					"name": "updateListing",
					"outputs": [],
					"stateMutability": "nonpayable",
					"type": "function"
				},
				{
					"inputs": [],
					"name": "withDrawProceeds",
					"outputs": [],
					"stateMutability": "nonpayable",
					"type": "function"
				}
			],
			"devdoc": {
				"errors": {
					"ReentrancyGuardReentrantCall()": [
						{
							"details": "Unauthorized reentrant call."
						}
					]
				},
				"kind": "dev",
				"methods": {},
				"version": 1
			},
			"evm": {
				"assembly": "    /* \"contracts/NFTMarketPlace.sol\":182:4735  contract NFTMarketPlace is ReentrancyGuard {... */\n  mstore(0x40, 0xa0)\n    /* \"contracts/NFTMarketPlace.sol\":1626:1679  constructor() {... */\n  callvalue\n  dup1\n  iszero\n  tag_1\n  jumpi\n  0x00\n  dup1\n  revert\ntag_1:\n  pop\n    /* \"@openzeppelin/contracts/utils/ReentrancyGuard.sol\":1713:1714  1 */\n  0x01\n    /* \"@openzeppelin/contracts/utils/ReentrancyGuard.sol\":1917:1924  _status */\n  0x00\n    /* \"@openzeppelin/contracts/utils/ReentrancyGuard.sol\":1917:1938  _status = NOT_ENTERED */\n  dup2\n  swap1\n  sstore\n  pop\n    /* \"contracts/NFTMarketPlace.sol\":1661:1671  msg.sender */\n  caller\n    /* \"contracts/NFTMarketPlace.sol\":1651:1671  i_owner = msg.sender */\n  0xffffffffffffffffffffffffffffffffffffffff\n  and\n  0x80\n  dup2\n  0xffffffffffffffffffffffffffffffffffffffff\n  and\n  dup2\n  mstore\n  pop\n  pop\n    /* \"contracts/NFTMarketPlace.sol\":182:4735  contract NFTMarketPlace is ReentrancyGuard {... */\n  mload(0x80)\n  codecopy(0x00, dataOffset(sub_0), dataSize(sub_0))\n  0x00\n  assignImmutable(\"0xd665d3e31f8da4f93255a62fad5ad42e8302e9c9a226187d84d77d13775d3867\")\n  return(0x00, dataSize(sub_0))\nstop\n\nsub_0: assembly {\n        /* \"contracts/NFTMarketPlace.sol\":182:4735  contract NFTMarketPlace is ReentrancyGuard {... */\n      mstore(0x40, 0x80)\n      jumpi(tag_1, lt(calldatasize, 0x04))\n      shr(0xe0, calldataload(0x00))\n      dup1\n      0xb2ddee06\n      gt\n      tag_10\n      jumpi\n      dup1\n      0xb2ddee06\n      eq\n      tag_6\n      jumpi\n      dup1\n      0xc6890de5\n      eq\n      tag_7\n      jumpi\n      dup1\n      0xdba6335f\n      eq\n      tag_8\n      jumpi\n      dup1\n      0xf772adf1\n      eq\n      tag_9\n      jumpi\n      jump(tag_1)\n    tag_10:\n      dup1\n      0x30cfeda9\n      eq\n      tag_2\n      jumpi\n      dup1\n      0x88700d1c\n      eq\n      tag_3\n      jumpi\n      dup1\n      0x89bfd38f\n      eq\n      tag_4\n      jumpi\n      dup1\n      0x9f37092a\n      eq\n      tag_5\n      jumpi\n    tag_1:\n      0x00\n      dup1\n      revert\n        /* \"contracts/NFTMarketPlace.sol\":4622:4732  function getProceeds(address seller) external view returns (uint) {... */\n    tag_2:\n      callvalue\n      dup1\n      iszero\n      tag_11\n      jumpi\n      0x00\n      dup1\n      revert\n    tag_11:\n      pop\n      tag_12\n      0x04\n      dup1\n      calldatasize\n      sub\n      dup2\n      add\n      swap1\n      tag_13\n      swap2\n      swap1\n      tag_14\n      jump\t// in\n    tag_13:\n      tag_15\n      jump\t// in\n    tag_12:\n      mload(0x40)\n      tag_16\n      swap2\n      swap1\n      tag_17\n      jump\t// in\n    tag_16:\n      mload(0x40)\n      dup1\n      swap2\n      sub\n      swap1\n      return\n        /* \"contracts/NFTMarketPlace.sol\":4440:4614  function getListing(... */\n    tag_3:\n      callvalue\n      dup1\n      iszero\n      tag_18\n      jumpi\n      0x00\n      dup1\n      revert\n    tag_18:\n      pop\n      tag_19\n      0x04\n      dup1\n      calldatasize\n      sub\n      dup2\n      add\n      swap1\n      tag_20\n      swap2\n      swap1\n      tag_21\n      jump\t// in\n    tag_20:\n      tag_22\n      jump\t// in\n    tag_19:\n      mload(0x40)\n      tag_23\n      swap2\n      swap1\n      tag_24\n      jump\t// in\n    tag_23:\n      mload(0x40)\n      dup1\n      swap2\n      sub\n      swap1\n      return\n        /* \"contracts/NFTMarketPlace.sol\":1925:2609  function listItem(... */\n    tag_4:\n      callvalue\n      dup1\n      iszero\n      tag_25\n      jumpi\n      0x00\n      dup1\n      revert\n    tag_25:\n      pop\n      tag_26\n      0x04\n      dup1\n      calldatasize\n      sub\n      dup2\n      add\n      swap1\n      tag_27\n      swap2\n      swap1\n      tag_28\n      jump\t// in\n    tag_27:\n      tag_29\n      jump\t// in\n    tag_26:\n      stop\n        /* \"contracts/NFTMarketPlace.sol\":2617:3506  function buyItem(... */\n    tag_5:\n      tag_30\n      0x04\n      dup1\n      calldatasize\n      sub\n      dup2\n      add\n      swap1\n      tag_31\n      swap2\n      swap1\n      tag_21\n      jump\t// in\n    tag_31:\n      tag_32\n      jump\t// in\n    tag_30:\n      stop\n        /* \"contracts/NFTMarketPlace.sol\":3514:3826  function cancelListing(... */\n    tag_6:\n      callvalue\n      dup1\n      iszero\n      tag_33\n      jumpi\n      0x00\n      dup1\n      revert\n    tag_33:\n      pop\n      tag_34\n      0x04\n      dup1\n      calldatasize\n      sub\n      dup2\n      add\n      swap1\n      tag_35\n      swap2\n      swap1\n      tag_21\n      jump\t// in\n    tag_35:\n      tag_36\n      jump\t// in\n    tag_34:\n      stop\n        /* \"contracts/NFTMarketPlace.sol\":4195:4432  function withDrawProceeds() external {... */\n    tag_7:\n      callvalue\n      dup1\n      iszero\n      tag_37\n      jumpi\n      0x00\n      dup1\n      revert\n    tag_37:\n      pop\n      tag_38\n      tag_39\n      jump\t// in\n    tag_38:\n      stop\n        /* \"contracts/NFTMarketPlace.sol\":232:264  address public immutable i_owner */\n    tag_8:\n      callvalue\n      dup1\n      iszero\n      tag_40\n      jumpi\n      0x00\n      dup1\n      revert\n    tag_40:\n      pop\n      tag_41\n      tag_42\n      jump\t// in\n    tag_41:\n      mload(0x40)\n      tag_43\n      swap2\n      swap1\n      tag_44\n      jump\t// in\n    tag_43:\n      mload(0x40)\n      dup1\n      swap2\n      sub\n      swap1\n      return\n        /* \"contracts/NFTMarketPlace.sol\":3834:4187  function updateListing(... */\n    tag_9:\n      callvalue\n      dup1\n      iszero\n      tag_45\n      jumpi\n      0x00\n      dup1\n      revert\n    tag_45:\n      pop\n      tag_46\n      0x04\n      dup1\n      calldatasize\n      sub\n      dup2\n      add\n      swap1\n      tag_47\n      swap2\n      swap1\n      tag_28\n      jump\t// in\n    tag_47:\n      tag_48\n      jump\t// in\n    tag_46:\n      stop\n        /* \"contracts/NFTMarketPlace.sol\":4622:4732  function getProceeds(address seller) external view returns (uint) {... */\n    tag_15:\n        /* \"contracts/NFTMarketPlace.sol\":4682:4686  uint */\n      0x00\n        /* \"contracts/NFTMarketPlace.sol\":4706:4716  s_proceeds */\n      0x02\n        /* \"contracts/NFTMarketPlace.sol\":4706:4724  s_proceeds[seller] */\n      0x00\n        /* \"contracts/NFTMarketPlace.sol\":4717:4723  seller */\n      dup4\n        /* \"contracts/NFTMarketPlace.sol\":4706:4724  s_proceeds[seller] */\n      0xffffffffffffffffffffffffffffffffffffffff\n      and\n      0xffffffffffffffffffffffffffffffffffffffff\n      and\n      dup2\n      mstore\n      0x20\n      add\n      swap1\n      dup2\n      mstore\n      0x20\n      add\n      0x00\n      keccak256\n      sload\n        /* \"contracts/NFTMarketPlace.sol\":4699:4724  return s_proceeds[seller] */\n      swap1\n      pop\n        /* \"contracts/NFTMarketPlace.sol\":4622:4732  function getProceeds(address seller) external view returns (uint) {... */\n      swap2\n      swap1\n      pop\n      jump\t// out\n        /* \"contracts/NFTMarketPlace.sol\":4440:4614  function getListing(... */\n    tag_22:\n        /* \"contracts/NFTMarketPlace.sol\":4542:4556  Listing memory */\n      tag_50\n      tag_51\n      jump\t// in\n    tag_50:\n        /* \"contracts/NFTMarketPlace.sol\":4576:4585  s_listing */\n      0x01\n        /* \"contracts/NFTMarketPlace.sol\":4576:4597  s_listing[nftAddress] */\n      0x00\n        /* \"contracts/NFTMarketPlace.sol\":4586:4596  nftAddress */\n      dup5\n        /* \"contracts/NFTMarketPlace.sol\":4576:4597  s_listing[nftAddress] */\n      0xffffffffffffffffffffffffffffffffffffffff\n      and\n      0xffffffffffffffffffffffffffffffffffffffff\n      and\n      dup2\n      mstore\n      0x20\n      add\n      swap1\n      dup2\n      mstore\n      0x20\n      add\n      0x00\n      keccak256\n        /* \"contracts/NFTMarketPlace.sol\":4576:4606  s_listing[nftAddress][tokenId] */\n      0x00\n        /* \"contracts/NFTMarketPlace.sol\":4598:4605  tokenId */\n      dup4\n        /* \"contracts/NFTMarketPlace.sol\":4576:4606  s_listing[nftAddress][tokenId] */\n      dup2\n      mstore\n      0x20\n      add\n      swap1\n      dup2\n      mstore\n      0x20\n      add\n      0x00\n      keccak256\n        /* \"contracts/NFTMarketPlace.sol\":4569:4606  return s_listing[nftAddress][tokenId] */\n      mload(0x40)\n      dup1\n      0x40\n      add\n      0x40\n      mstore\n      swap1\n      dup2\n      0x00\n      dup3\n      add\n      sload\n      dup2\n      mstore\n      0x20\n      add\n      0x01\n      dup3\n      add\n      0x00\n      swap1\n      sload\n      swap1\n      0x0100\n      exp\n      swap1\n      div\n      0xffffffffffffffffffffffffffffffffffffffff\n      and\n      0xffffffffffffffffffffffffffffffffffffffff\n      and\n      0xffffffffffffffffffffffffffffffffffffffff\n      and\n      dup2\n      mstore\n      pop\n      pop\n      swap1\n      pop\n        /* \"contracts/NFTMarketPlace.sol\":4440:4614  function getListing(... */\n      swap3\n      swap2\n      pop\n      pop\n      jump\t// out\n        /* \"contracts/NFTMarketPlace.sol\":1925:2609  function listItem(... */\n    tag_29:\n        /* \"contracts/NFTMarketPlace.sol\":2060:2070  nftAddress */\n      dup3\n        /* \"contracts/NFTMarketPlace.sol\":2072:2079  tokenId */\n      dup2\n        /* \"contracts/NFTMarketPlace.sol\":957:979  Listing memory listing */\n      0x00\n        /* \"contracts/NFTMarketPlace.sol\":982:991  s_listing */\n      0x01\n        /* \"contracts/NFTMarketPlace.sol\":982:1003  s_listing[nftAddress] */\n      0x00\n        /* \"contracts/NFTMarketPlace.sol\":992:1002  nftAddress */\n      dup5\n        /* \"contracts/NFTMarketPlace.sol\":982:1003  s_listing[nftAddress] */\n      0xffffffffffffffffffffffffffffffffffffffff\n      and\n      0xffffffffffffffffffffffffffffffffffffffff\n      and\n      dup2\n      mstore\n      0x20\n      add\n      swap1\n      dup2\n      mstore\n      0x20\n      add\n      0x00\n      keccak256\n        /* \"contracts/NFTMarketPlace.sol\":982:1012  s_listing[nftAddress][tokenId] */\n      0x00\n        /* \"contracts/NFTMarketPlace.sol\":1004:1011  tokenId */\n      dup4\n        /* \"contracts/NFTMarketPlace.sol\":982:1012  s_listing[nftAddress][tokenId] */\n      dup2\n      mstore\n      0x20\n      add\n      swap1\n      dup2\n      mstore\n      0x20\n      add\n      0x00\n      keccak256\n        /* \"contracts/NFTMarketPlace.sol\":957:1012  Listing memory listing = s_listing[nftAddress][tokenId] */\n      mload(0x40)\n      dup1\n      0x40\n      add\n      0x40\n      mstore\n      swap1\n      dup2\n      0x00\n      dup3\n      add\n      sload\n      dup2\n      mstore\n      0x20\n      add\n      0x01\n      dup3\n      add\n      0x00\n      swap1\n      sload\n      swap1\n      0x0100\n      exp\n      swap1\n      div\n      0xffffffffffffffffffffffffffffffffffffffff\n      and\n      0xffffffffffffffffffffffffffffffffffffffff\n      and\n      0xffffffffffffffffffffffffffffffffffffffff\n      and\n      dup2\n      mstore\n      pop\n      pop\n      swap1\n      pop\n        /* \"contracts/NFTMarketPlace.sol\":1048:1049  0 */\n      0x00\n        /* \"contracts/NFTMarketPlace.sol\":1031:1038  listing */\n      dup2\n        /* \"contracts/NFTMarketPlace.sol\":1031:1044  listing.price */\n      0x00\n      add\n      mload\n        /* \"contracts/NFTMarketPlace.sol\":1031:1049  listing.price <= 0 */\n      gt\n      iszero\n        /* \"contracts/NFTMarketPlace.sol\":1023:1077  require(listing.price <= 0, \"Current NFT has listed!\") */\n      tag_54\n      jumpi\n      mload(0x40)\n      0x08c379a000000000000000000000000000000000000000000000000000000000\n      dup2\n      mstore\n      0x04\n      add\n      tag_55\n      swap1\n      tag_56\n      jump\t// in\n    tag_55:\n      mload(0x40)\n      dup1\n      swap2\n      sub\n      swap1\n      revert\n    tag_54:\n        /* \"contracts/NFTMarketPlace.sol\":2098:2108  nftAddress */\n      dup6\n        /* \"contracts/NFTMarketPlace.sol\":2110:2117  tokenId */\n      dup5\n        /* \"contracts/NFTMarketPlace.sol\":2119:2129  msg.sender */\n      caller\n        /* \"contracts/NFTMarketPlace.sol\":1431:1442  IERC721 nft */\n      0x00\n        /* \"contracts/NFTMarketPlace.sol\":1453:1463  nftAddress */\n      dup4\n        /* \"contracts/NFTMarketPlace.sol\":1431:1464  IERC721 nft = IERC721(nftAddress) */\n      swap1\n      pop\n        /* \"contracts/NFTMarketPlace.sol\":1521:1528  spender */\n      dup2\n        /* \"contracts/NFTMarketPlace.sol\":1497:1528  nft.ownerOf(tokenId) == spender */\n      0xffffffffffffffffffffffffffffffffffffffff\n      and\n        /* \"contracts/NFTMarketPlace.sol\":1497:1500  nft */\n      dup2\n        /* \"contracts/NFTMarketPlace.sol\":1497:1508  nft.ownerOf */\n      0xffffffffffffffffffffffffffffffffffffffff\n      and\n      0x6352211e\n        /* \"contracts/NFTMarketPlace.sol\":1509:1516  tokenId */\n      dup6\n        /* \"contracts/NFTMarketPlace.sol\":1497:1517  nft.ownerOf(tokenId) */\n      mload(0x40)\n      dup3\n      0xffffffff\n      and\n      0xe0\n      shl\n      dup2\n      mstore\n      0x04\n      add\n      tag_58\n      swap2\n      swap1\n      tag_17\n      jump\t// in\n    tag_58:\n      0x20\n      mload(0x40)\n      dup1\n      dup4\n      sub\n      dup2\n      dup7\n      gas\n      staticcall\n      iszero\n      dup1\n      iszero\n      tag_60\n      jumpi\n      returndatasize\n      0x00\n      dup1\n      returndatacopy\n      revert(0x00, returndatasize)\n    tag_60:\n      pop\n      pop\n      pop\n      pop\n      mload(0x40)\n      returndatasize\n      not(0x1f)\n      0x1f\n      dup3\n      add\n      and\n      dup3\n      add\n      dup1\n      0x40\n      mstore\n      pop\n      dup2\n      add\n      swap1\n      tag_61\n      swap2\n      swap1\n      tag_62\n      jump\t// in\n    tag_61:\n        /* \"contracts/NFTMarketPlace.sol\":1497:1528  nft.ownerOf(tokenId) == spender */\n      0xffffffffffffffffffffffffffffffffffffffff\n      and\n      eq\n        /* \"contracts/NFTMarketPlace.sol\":1475:1598  require(... */\n      tag_63\n      jumpi\n      mload(0x40)\n      0x08c379a000000000000000000000000000000000000000000000000000000000\n      dup2\n      mstore\n      0x04\n      add\n      tag_64\n      swap1\n      tag_65\n      jump\t// in\n    tag_64:\n      mload(0x40)\n      dup1\n      swap2\n      sub\n      swap1\n      revert\n    tag_63:\n        /* \"contracts/NFTMarketPlace.sol\":2163:2164  0 */\n      0x00\n        /* \"contracts/NFTMarketPlace.sol\":2155:2160  price */\n      dup10\n        /* \"contracts/NFTMarketPlace.sol\":2155:2164  price > 0 */\n      gt\n        /* \"contracts/NFTMarketPlace.sol\":2147:2199  require(price > 0, \"Nft price must need over zero!\") */\n      tag_67\n      jumpi\n      mload(0x40)\n      0x08c379a000000000000000000000000000000000000000000000000000000000\n      dup2\n      mstore\n      0x04\n      add\n      tag_68\n      swap1\n      tag_69\n      jump\t// in\n    tag_68:\n      mload(0x40)\n      dup1\n      swap2\n      sub\n      swap1\n      revert\n    tag_67:\n        /* \"contracts/NFTMarketPlace.sol\":2281:2292  IERC721 nft */\n      0x00\n        /* \"contracts/NFTMarketPlace.sol\":2303:2313  nftAddress */\n      dup11\n        /* \"contracts/NFTMarketPlace.sol\":2281:2314  IERC721 nft = IERC721(nftAddress) */\n      swap1\n      pop\n        /* \"contracts/NFTMarketPlace.sol\":2383:2387  this */\n      address\n        /* \"contracts/NFTMarketPlace.sol\":2347:2388  nft.getApproved(tokenId) == address(this) */\n      0xffffffffffffffffffffffffffffffffffffffff\n      and\n        /* \"contracts/NFTMarketPlace.sol\":2347:2350  nft */\n      dup2\n        /* \"contracts/NFTMarketPlace.sol\":2347:2362  nft.getApproved */\n      0xffffffffffffffffffffffffffffffffffffffff\n      and\n      0x081812fc\n        /* \"contracts/NFTMarketPlace.sol\":2363:2370  tokenId */\n      dup12\n        /* \"contracts/NFTMarketPlace.sol\":2347:2371  nft.getApproved(tokenId) */\n      mload(0x40)\n      dup3\n      0xffffffff\n      and\n      0xe0\n      shl\n      dup2\n      mstore\n      0x04\n      add\n      tag_70\n      swap2\n      swap1\n      tag_17\n      jump\t// in\n    tag_70:\n      0x20\n      mload(0x40)\n      dup1\n      dup4\n      sub\n      dup2\n      dup7\n      gas\n      staticcall\n      iszero\n      dup1\n      iszero\n      tag_72\n      jumpi\n      returndatasize\n      0x00\n      dup1\n      returndatacopy\n      revert(0x00, returndatasize)\n    tag_72:\n      pop\n      pop\n      pop\n      pop\n      mload(0x40)\n      returndatasize\n      not(0x1f)\n      0x1f\n      dup3\n      add\n      and\n      dup3\n      add\n      dup1\n      0x40\n      mstore\n      pop\n      dup2\n      add\n      swap1\n      tag_73\n      swap2\n      swap1\n      tag_62\n      jump\t// in\n    tag_73:\n        /* \"contracts/NFTMarketPlace.sol\":2347:2388  nft.getApproved(tokenId) == address(this) */\n      0xffffffffffffffffffffffffffffffffffffffff\n      and\n      eq\n        /* \"contracts/NFTMarketPlace.sol\":2325:2465  require(... */\n      tag_74\n      jumpi\n      mload(0x40)\n      0x08c379a000000000000000000000000000000000000000000000000000000000\n      dup2\n      mstore\n      0x04\n      add\n      tag_75\n      swap1\n      tag_76\n      jump\t// in\n    tag_75:\n      mload(0x40)\n      dup1\n      swap2\n      sub\n      swap1\n      revert\n    tag_74:\n        /* \"contracts/NFTMarketPlace.sol\":2509:2535  Listing(price, msg.sender) */\n      mload(0x40)\n      dup1\n      0x40\n      add\n      0x40\n      mstore\n      dup1\n        /* \"contracts/NFTMarketPlace.sol\":2517:2522  price */\n      dup12\n        /* \"contracts/NFTMarketPlace.sol\":2509:2535  Listing(price, msg.sender) */\n      dup2\n      mstore\n      0x20\n      add\n        /* \"contracts/NFTMarketPlace.sol\":2524:2534  msg.sender */\n      caller\n        /* \"contracts/NFTMarketPlace.sol\":2509:2535  Listing(price, msg.sender) */\n      0xffffffffffffffffffffffffffffffffffffffff\n      and\n      dup2\n      mstore\n      pop\n        /* \"contracts/NFTMarketPlace.sol\":2476:2485  s_listing */\n      0x01\n        /* \"contracts/NFTMarketPlace.sol\":2476:2497  s_listing[nftAddress] */\n      0x00\n        /* \"contracts/NFTMarketPlace.sol\":2486:2496  nftAddress */\n      dup14\n        /* \"contracts/NFTMarketPlace.sol\":2476:2497  s_listing[nftAddress] */\n      0xffffffffffffffffffffffffffffffffffffffff\n      and\n      0xffffffffffffffffffffffffffffffffffffffff\n      and\n      dup2\n      mstore\n      0x20\n      add\n      swap1\n      dup2\n      mstore\n      0x20\n      add\n      0x00\n      keccak256\n        /* \"contracts/NFTMarketPlace.sol\":2476:2506  s_listing[nftAddress][tokenId] */\n      0x00\n        /* \"contracts/NFTMarketPlace.sol\":2498:2505  tokenId */\n      dup12\n        /* \"contracts/NFTMarketPlace.sol\":2476:2506  s_listing[nftAddress][tokenId] */\n      dup2\n      mstore\n      0x20\n      add\n      swap1\n      dup2\n      mstore\n      0x20\n      add\n      0x00\n      keccak256\n        /* \"contracts/NFTMarketPlace.sol\":2476:2535  s_listing[nftAddress][tokenId] = Listing(price, msg.sender) */\n      0x00\n      dup3\n      add\n      mload\n      dup2\n      0x00\n      add\n      sstore\n      0x20\n      dup3\n      add\n      mload\n      dup2\n      0x01\n      add\n      exp(0x0100, 0x00)\n      dup2\n      sload\n      dup2\n      0xffffffffffffffffffffffffffffffffffffffff\n      mul\n      not\n      and\n      swap1\n      dup4\n      0xffffffffffffffffffffffffffffffffffffffff\n      and\n      mul\n      or\n      swap1\n      sstore\n      pop\n      swap1\n      pop\n      pop\n        /* \"contracts/NFTMarketPlace.sol\":2586:2593  tokenId */\n      dup9\n        /* \"contracts/NFTMarketPlace.sol\":2574:2584  nftAddress */\n      dup12\n        /* \"contracts/NFTMarketPlace.sol\":2551:2601  ItemListed(msg.sender, nftAddress, tokenId, price) */\n      0xffffffffffffffffffffffffffffffffffffffff\n      and\n        /* \"contracts/NFTMarketPlace.sol\":2562:2572  msg.sender */\n      caller\n        /* \"contracts/NFTMarketPlace.sol\":2551:2601  ItemListed(msg.sender, nftAddress, tokenId, price) */\n      0xffffffffffffffffffffffffffffffffffffffff\n      and\n      0xd547e933094f12a9159076970143ebe73234e64480317844b0dcb36117116de4\n        /* \"contracts/NFTMarketPlace.sol\":2595:2600  price */\n      dup14\n        /* \"contracts/NFTMarketPlace.sol\":2551:2601  ItemListed(msg.sender, nftAddress, tokenId, price) */\n      mload(0x40)\n      tag_77\n      swap2\n      swap1\n      tag_17\n      jump\t// in\n    tag_77:\n      mload(0x40)\n      dup1\n      swap2\n      sub\n      swap1\n      log4\n        /* \"contracts/NFTMarketPlace.sol\":2136:2609  {... */\n      pop\n        /* \"contracts/NFTMarketPlace.sol\":1420:1618  {... */\n      pop\n        /* \"contracts/NFTMarketPlace.sol\":1088:1089  _ */\n      pop\n      pop\n      pop\n        /* \"contracts/NFTMarketPlace.sol\":946:1097  {... */\n      pop\n        /* \"contracts/NFTMarketPlace.sol\":1925:2609  function listItem(... */\n      pop\n      pop\n      pop\n      pop\n      pop\n      jump\t// out\n        /* \"contracts/NFTMarketPlace.sol\":2617:3506  function buyItem(... */\n    tag_32:\n        /* \"contracts/NFTMarketPlace.sol\":2719:2729  nftAddress */\n      dup2\n        /* \"contracts/NFTMarketPlace.sol\":2731:2738  tokenId */\n      dup2\n        /* \"contracts/NFTMarketPlace.sol\":1168:1190  Listing memory listing */\n      0x00\n        /* \"contracts/NFTMarketPlace.sol\":1193:1202  s_listing */\n      0x01\n        /* \"contracts/NFTMarketPlace.sol\":1193:1214  s_listing[nftAddress] */\n      0x00\n        /* \"contracts/NFTMarketPlace.sol\":1203:1213  nftAddress */\n      dup5\n        /* \"contracts/NFTMarketPlace.sol\":1193:1214  s_listing[nftAddress] */\n      0xffffffffffffffffffffffffffffffffffffffff\n      and\n      0xffffffffffffffffffffffffffffffffffffffff\n      and\n      dup2\n      mstore\n      0x20\n      add\n      swap1\n      dup2\n      mstore\n      0x20\n      add\n      0x00\n      keccak256\n        /* \"contracts/NFTMarketPlace.sol\":1193:1223  s_listing[nftAddress][tokenId] */\n      0x00\n        /* \"contracts/NFTMarketPlace.sol\":1215:1222  tokenId */\n      dup4\n        /* \"contracts/NFTMarketPlace.sol\":1193:1223  s_listing[nftAddress][tokenId] */\n      dup2\n      mstore\n      0x20\n      add\n      swap1\n      dup2\n      mstore\n      0x20\n      add\n      0x00\n      keccak256\n        /* \"contracts/NFTMarketPlace.sol\":1168:1223  Listing memory listing = s_listing[nftAddress][tokenId] */\n      mload(0x40)\n      dup1\n      0x40\n      add\n      0x40\n      mstore\n      swap1\n      dup2\n      0x00\n      dup3\n      add\n      sload\n      dup2\n      mstore\n      0x20\n      add\n      0x01\n      dup3\n      add\n      0x00\n      swap1\n      sload\n      swap1\n      0x0100\n      exp\n      swap1\n      div\n      0xffffffffffffffffffffffffffffffffffffffff\n      and\n      0xffffffffffffffffffffffffffffffffffffffff\n      and\n      0xffffffffffffffffffffffffffffffffffffffff\n      and\n      dup2\n      mstore\n      pop\n      pop\n      swap1\n      pop\n        /* \"contracts/NFTMarketPlace.sol\":1258:1259  0 */\n      0x00\n        /* \"contracts/NFTMarketPlace.sol\":1242:1249  listing */\n      dup2\n        /* \"contracts/NFTMarketPlace.sol\":1242:1255  listing.price */\n      0x00\n      add\n      mload\n        /* \"contracts/NFTMarketPlace.sol\":1242:1259  listing.price > 0 */\n      gt\n        /* \"contracts/NFTMarketPlace.sol\":1234:1290  require(listing.price > 0, \"Current NFT has no listed!\") */\n      tag_79\n      jumpi\n      mload(0x40)\n      0x08c379a000000000000000000000000000000000000000000000000000000000\n      dup2\n      mstore\n      0x04\n      add\n      tag_80\n      swap1\n      tag_81\n      jump\t// in\n    tag_80:\n      mload(0x40)\n      dup1\n      swap2\n      sub\n      swap1\n      revert\n    tag_79:\n        /* \"@openzeppelin/contracts/utils/ReentrancyGuard.sol\":2356:2377  _nonReentrantBefore() */\n      tag_83\n        /* \"@openzeppelin/contracts/utils/ReentrancyGuard.sol\":2356:2375  _nonReentrantBefore */\n      tag_84\n        /* \"@openzeppelin/contracts/utils/ReentrancyGuard.sol\":2356:2377  _nonReentrantBefore() */\n      jump\t// in\n    tag_83:\n        /* \"contracts/NFTMarketPlace.sol\":2764:2786  Listing memory listing */\n      0x00\n        /* \"contracts/NFTMarketPlace.sol\":2789:2798  s_listing */\n      0x01\n        /* \"contracts/NFTMarketPlace.sol\":2789:2810  s_listing[nftAddress] */\n      0x00\n        /* \"contracts/NFTMarketPlace.sol\":2799:2809  nftAddress */\n      dup8\n        /* \"contracts/NFTMarketPlace.sol\":2789:2810  s_listing[nftAddress] */\n      0xffffffffffffffffffffffffffffffffffffffff\n      and\n      0xffffffffffffffffffffffffffffffffffffffff\n      and\n      dup2\n      mstore\n      0x20\n      add\n      swap1\n      dup2\n      mstore\n      0x20\n      add\n      0x00\n      keccak256\n        /* \"contracts/NFTMarketPlace.sol\":2789:2819  s_listing[nftAddress][tokenId] */\n      0x00\n        /* \"contracts/NFTMarketPlace.sol\":2811:2818  tokenId */\n      dup7\n        /* \"contracts/NFTMarketPlace.sol\":2789:2819  s_listing[nftAddress][tokenId] */\n      dup2\n      mstore\n      0x20\n      add\n      swap1\n      dup2\n      mstore\n      0x20\n      add\n      0x00\n      keccak256\n        /* \"contracts/NFTMarketPlace.sol\":2764:2819  Listing memory listing = s_listing[nftAddress][tokenId] */\n      mload(0x40)\n      dup1\n      0x40\n      add\n      0x40\n      mstore\n      swap1\n      dup2\n      0x00\n      dup3\n      add\n      sload\n      dup2\n      mstore\n      0x20\n      add\n      0x01\n      dup3\n      add\n      0x00\n      swap1\n      sload\n      swap1\n      0x0100\n      exp\n      swap1\n      div\n      0xffffffffffffffffffffffffffffffffffffffff\n      and\n      0xffffffffffffffffffffffffffffffffffffffff\n      and\n      0xffffffffffffffffffffffffffffffffffffffff\n      and\n      dup2\n      mstore\n      pop\n      pop\n      swap1\n      pop\n        /* \"contracts/NFTMarketPlace.sol\":2855:2864  msg.value */\n      callvalue\n        /* \"contracts/NFTMarketPlace.sol\":2838:2845  listing */\n      dup2\n        /* \"contracts/NFTMarketPlace.sol\":2838:2851  listing.price */\n      0x00\n      add\n      mload\n        /* \"contracts/NFTMarketPlace.sol\":2838:2864  listing.price == msg.value */\n      eq\n        /* \"contracts/NFTMarketPlace.sol\":2830:2887  require(listing.price == msg.value, \"NFT price not met!\") */\n      tag_86\n      jumpi\n      mload(0x40)\n      0x08c379a000000000000000000000000000000000000000000000000000000000\n      dup2\n      mstore\n      0x04\n      add\n      tag_87\n      swap1\n      tag_88\n      jump\t// in\n    tag_87:\n      mload(0x40)\n      dup1\n      swap2\n      sub\n      swap1\n      revert\n    tag_86:\n        /* \"contracts/NFTMarketPlace.sol\":2928:2937  msg.value */\n      callvalue\n        /* \"contracts/NFTMarketPlace.sol\":2898:2908  s_proceeds */\n      0x02\n        /* \"contracts/NFTMarketPlace.sol\":2898:2924  s_proceeds[listing.seller] */\n      0x00\n        /* \"contracts/NFTMarketPlace.sol\":2909:2916  listing */\n      dup4\n        /* \"contracts/NFTMarketPlace.sol\":2909:2923  listing.seller */\n      0x20\n      add\n      mload\n        /* \"contracts/NFTMarketPlace.sol\":2898:2924  s_proceeds[listing.seller] */\n      0xffffffffffffffffffffffffffffffffffffffff\n      and\n      0xffffffffffffffffffffffffffffffffffffffff\n      and\n      dup2\n      mstore\n      0x20\n      add\n      swap1\n      dup2\n      mstore\n      0x20\n      add\n      0x00\n      keccak256\n      0x00\n        /* \"contracts/NFTMarketPlace.sol\":2898:2937  s_proceeds[listing.seller] += msg.value */\n      dup3\n      dup3\n      sload\n      tag_89\n      swap2\n      swap1\n      tag_90\n      jump\t// in\n    tag_89:\n      swap3\n      pop\n      pop\n      dup2\n      swap1\n      sstore\n      pop\n        /* \"contracts/NFTMarketPlace.sol\":2955:2964  s_listing */\n      0x01\n        /* \"contracts/NFTMarketPlace.sol\":2955:2976  s_listing[nftAddress] */\n      0x00\n        /* \"contracts/NFTMarketPlace.sol\":2965:2975  nftAddress */\n      dup8\n        /* \"contracts/NFTMarketPlace.sol\":2955:2976  s_listing[nftAddress] */\n      0xffffffffffffffffffffffffffffffffffffffff\n      and\n      0xffffffffffffffffffffffffffffffffffffffff\n      and\n      dup2\n      mstore\n      0x20\n      add\n      swap1\n      dup2\n      mstore\n      0x20\n      add\n      0x00\n      keccak256\n        /* \"contracts/NFTMarketPlace.sol\":2955:2985  s_listing[nftAddress][tokenId] */\n      0x00\n        /* \"contracts/NFTMarketPlace.sol\":2977:2984  tokenId */\n      dup7\n        /* \"contracts/NFTMarketPlace.sol\":2955:2985  s_listing[nftAddress][tokenId] */\n      dup2\n      mstore\n      0x20\n      add\n      swap1\n      dup2\n      mstore\n      0x20\n      add\n      0x00\n      keccak256\n      0x00\n        /* \"contracts/NFTMarketPlace.sol\":2948:2985  delete s_listing[nftAddress][tokenId] */\n      dup1\n      dup3\n      add\n      0x00\n      swap1\n      sstore\n      0x01\n      dup3\n      add\n      exp(0x0100, 0x00)\n      dup2\n      sload\n      swap1\n      0xffffffffffffffffffffffffffffffffffffffff\n      mul\n      not\n      and\n      swap1\n      sstore\n      pop\n      pop\n        /* \"contracts/NFTMarketPlace.sol\":3312:3322  nftAddress */\n      dup6\n        /* \"contracts/NFTMarketPlace.sol\":3304:3340  IERC721(nftAddress).safeTransferFrom */\n      0xffffffffffffffffffffffffffffffffffffffff\n      and\n      0x42842e0e\n        /* \"contracts/NFTMarketPlace.sol\":3355:3362  listing */\n      dup3\n        /* \"contracts/NFTMarketPlace.sol\":3355:3369  listing.seller */\n      0x20\n      add\n      mload\n        /* \"contracts/NFTMarketPlace.sol\":3384:3394  msg.sender */\n      caller\n        /* \"contracts/NFTMarketPlace.sol\":3409:3416  tokenId */\n      dup9\n        /* \"contracts/NFTMarketPlace.sol\":3304:3427  IERC721(nftAddress).safeTransferFrom(... */\n      mload(0x40)\n      dup5\n      0xffffffff\n      and\n      0xe0\n      shl\n      dup2\n      mstore\n      0x04\n      add\n      tag_91\n      swap4\n      swap3\n      swap2\n      swap1\n      tag_92\n      jump\t// in\n    tag_91:\n      0x00\n      mload(0x40)\n      dup1\n      dup4\n      sub\n      dup2\n      0x00\n      dup8\n      dup1\n      extcodesize\n      iszero\n      dup1\n      iszero\n      tag_93\n      jumpi\n      0x00\n      dup1\n      revert\n    tag_93:\n      pop\n      gas\n      call\n      iszero\n      dup1\n      iszero\n      tag_95\n      jumpi\n      returndatasize\n      0x00\n      dup1\n      returndatacopy\n      revert(0x00, returndatasize)\n    tag_95:\n      pop\n      pop\n      pop\n      pop\n        /* \"contracts/NFTMarketPlace.sol\":3475:3482  tokenId */\n      dup5\n        /* \"contracts/NFTMarketPlace.sol\":3463:3473  nftAddress */\n      dup7\n        /* \"contracts/NFTMarketPlace.sol\":3443:3498  BuyItem(msg.sender, nftAddress, tokenId, listing.price) */\n      0xffffffffffffffffffffffffffffffffffffffff\n      and\n        /* \"contracts/NFTMarketPlace.sol\":3451:3461  msg.sender */\n      caller\n        /* \"contracts/NFTMarketPlace.sol\":3443:3498  BuyItem(msg.sender, nftAddress, tokenId, listing.price) */\n      0xffffffffffffffffffffffffffffffffffffffff\n      and\n      0xc6d7a5e59f38ae48e0f1577ce4627ba9b270bfd4c2c0c7be609c429421bc3d68\n        /* \"contracts/NFTMarketPlace.sol\":3484:3491  listing */\n      dup5\n        /* \"contracts/NFTMarketPlace.sol\":3484:3497  listing.price */\n      0x00\n      add\n      mload\n        /* \"contracts/NFTMarketPlace.sol\":3443:3498  BuyItem(msg.sender, nftAddress, tokenId, listing.price) */\n      mload(0x40)\n      tag_96\n      swap2\n      swap1\n      tag_17\n      jump\t// in\n    tag_96:\n      mload(0x40)\n      dup1\n      swap2\n      sub\n      swap1\n      log4\n        /* \"contracts/NFTMarketPlace.sol\":2753:3506  {... */\n      pop\n        /* \"@openzeppelin/contracts/utils/ReentrancyGuard.sol\":2398:2418  _nonReentrantAfter() */\n      tag_97\n        /* \"@openzeppelin/contracts/utils/ReentrancyGuard.sol\":2398:2416  _nonReentrantAfter */\n      tag_98\n        /* \"@openzeppelin/contracts/utils/ReentrancyGuard.sol\":2398:2418  _nonReentrantAfter() */\n      jump\t// in\n    tag_97:\n        /* \"contracts/NFTMarketPlace.sol\":1157:1310  {... */\n      pop\n        /* \"contracts/NFTMarketPlace.sol\":2617:3506  function buyItem(... */\n      pop\n      pop\n      pop\n      pop\n      jump\t// out\n        /* \"contracts/NFTMarketPlace.sol\":3514:3826  function cancelListing(... */\n    tag_36:\n        /* \"contracts/NFTMarketPlace.sol\":3631:3641  nftAddress */\n      dup2\n        /* \"contracts/NFTMarketPlace.sol\":3643:3650  tokenId */\n      dup2\n        /* \"contracts/NFTMarketPlace.sol\":3652:3662  msg.sender */\n      caller\n        /* \"contracts/NFTMarketPlace.sol\":1431:1442  IERC721 nft */\n      0x00\n        /* \"contracts/NFTMarketPlace.sol\":1453:1463  nftAddress */\n      dup4\n        /* \"contracts/NFTMarketPlace.sol\":1431:1464  IERC721 nft = IERC721(nftAddress) */\n      swap1\n      pop\n        /* \"contracts/NFTMarketPlace.sol\":1521:1528  spender */\n      dup2\n        /* \"contracts/NFTMarketPlace.sol\":1497:1528  nft.ownerOf(tokenId) == spender */\n      0xffffffffffffffffffffffffffffffffffffffff\n      and\n        /* \"contracts/NFTMarketPlace.sol\":1497:1500  nft */\n      dup2\n        /* \"contracts/NFTMarketPlace.sol\":1497:1508  nft.ownerOf */\n      0xffffffffffffffffffffffffffffffffffffffff\n      and\n      0x6352211e\n        /* \"contracts/NFTMarketPlace.sol\":1509:1516  tokenId */\n      dup6\n        /* \"contracts/NFTMarketPlace.sol\":1497:1517  nft.ownerOf(tokenId) */\n      mload(0x40)\n      dup3\n      0xffffffff\n      and\n      0xe0\n      shl\n      dup2\n      mstore\n      0x04\n      add\n      tag_100\n      swap2\n      swap1\n      tag_17\n      jump\t// in\n    tag_100:\n      0x20\n      mload(0x40)\n      dup1\n      dup4\n      sub\n      dup2\n      dup7\n      gas\n      staticcall\n      iszero\n      dup1\n      iszero\n      tag_102\n      jumpi\n      returndatasize\n      0x00\n      dup1\n      returndatacopy\n      revert(0x00, returndatasize)\n    tag_102:\n      pop\n      pop\n      pop\n      pop\n      mload(0x40)\n      returndatasize\n      not(0x1f)\n      0x1f\n      dup3\n      add\n      and\n      dup3\n      add\n      dup1\n      0x40\n      mstore\n      pop\n      dup2\n      add\n      swap1\n      tag_103\n      swap2\n      swap1\n      tag_62\n      jump\t// in\n    tag_103:\n        /* \"contracts/NFTMarketPlace.sol\":1497:1528  nft.ownerOf(tokenId) == spender */\n      0xffffffffffffffffffffffffffffffffffffffff\n      and\n      eq\n        /* \"contracts/NFTMarketPlace.sol\":1475:1598  require(... */\n      tag_104\n      jumpi\n      mload(0x40)\n      0x08c379a000000000000000000000000000000000000000000000000000000000\n      dup2\n      mstore\n      0x04\n      add\n      tag_105\n      swap1\n      tag_65\n      jump\t// in\n    tag_105:\n      mload(0x40)\n      dup1\n      swap2\n      sub\n      swap1\n      revert\n    tag_104:\n        /* \"contracts/NFTMarketPlace.sol\":3682:3692  nftAddress */\n      dup6\n        /* \"contracts/NFTMarketPlace.sol\":3694:3701  tokenId */\n      dup6\n        /* \"contracts/NFTMarketPlace.sol\":1168:1190  Listing memory listing */\n      0x00\n        /* \"contracts/NFTMarketPlace.sol\":1193:1202  s_listing */\n      0x01\n        /* \"contracts/NFTMarketPlace.sol\":1193:1214  s_listing[nftAddress] */\n      0x00\n        /* \"contracts/NFTMarketPlace.sol\":1203:1213  nftAddress */\n      dup5\n        /* \"contracts/NFTMarketPlace.sol\":1193:1214  s_listing[nftAddress] */\n      0xffffffffffffffffffffffffffffffffffffffff\n      and\n      0xffffffffffffffffffffffffffffffffffffffff\n      and\n      dup2\n      mstore\n      0x20\n      add\n      swap1\n      dup2\n      mstore\n      0x20\n      add\n      0x00\n      keccak256\n        /* \"contracts/NFTMarketPlace.sol\":1193:1223  s_listing[nftAddress][tokenId] */\n      0x00\n        /* \"contracts/NFTMarketPlace.sol\":1215:1222  tokenId */\n      dup4\n        /* \"contracts/NFTMarketPlace.sol\":1193:1223  s_listing[nftAddress][tokenId] */\n      dup2\n      mstore\n      0x20\n      add\n      swap1\n      dup2\n      mstore\n      0x20\n      add\n      0x00\n      keccak256\n        /* \"contracts/NFTMarketPlace.sol\":1168:1223  Listing memory listing = s_listing[nftAddress][tokenId] */\n      mload(0x40)\n      dup1\n      0x40\n      add\n      0x40\n      mstore\n      swap1\n      dup2\n      0x00\n      dup3\n      add\n      sload\n      dup2\n      mstore\n      0x20\n      add\n      0x01\n      dup3\n      add\n      0x00\n      swap1\n      sload\n      swap1\n      0x0100\n      exp\n      swap1\n      div\n      0xffffffffffffffffffffffffffffffffffffffff\n      and\n      0xffffffffffffffffffffffffffffffffffffffff\n      and\n      0xffffffffffffffffffffffffffffffffffffffff\n      and\n      dup2\n      mstore\n      pop\n      pop\n      swap1\n      pop\n        /* \"contracts/NFTMarketPlace.sol\":1258:1259  0 */\n      0x00\n        /* \"contracts/NFTMarketPlace.sol\":1242:1249  listing */\n      dup2\n        /* \"contracts/NFTMarketPlace.sol\":1242:1255  listing.price */\n      0x00\n      add\n      mload\n        /* \"contracts/NFTMarketPlace.sol\":1242:1259  listing.price > 0 */\n      gt\n        /* \"contracts/NFTMarketPlace.sol\":1234:1290  require(listing.price > 0, \"Current NFT has no listed!\") */\n      tag_107\n      jumpi\n      mload(0x40)\n      0x08c379a000000000000000000000000000000000000000000000000000000000\n      dup2\n      mstore\n      0x04\n      add\n      tag_108\n      swap1\n      tag_81\n      jump\t// in\n    tag_108:\n      mload(0x40)\n      dup1\n      swap2\n      sub\n      swap1\n      revert\n    tag_107:\n        /* \"contracts/NFTMarketPlace.sol\":3726:3735  s_listing */\n      0x01\n        /* \"contracts/NFTMarketPlace.sol\":3726:3747  s_listing[nftAddress] */\n      0x00\n        /* \"contracts/NFTMarketPlace.sol\":3736:3746  nftAddress */\n      dup11\n        /* \"contracts/NFTMarketPlace.sol\":3726:3747  s_listing[nftAddress] */\n      0xffffffffffffffffffffffffffffffffffffffff\n      and\n      0xffffffffffffffffffffffffffffffffffffffff\n      and\n      dup2\n      mstore\n      0x20\n      add\n      swap1\n      dup2\n      mstore\n      0x20\n      add\n      0x00\n      keccak256\n        /* \"contracts/NFTMarketPlace.sol\":3726:3756  s_listing[nftAddress][tokenId] */\n      0x00\n        /* \"contracts/NFTMarketPlace.sol\":3748:3755  tokenId */\n      dup10\n        /* \"contracts/NFTMarketPlace.sol\":3726:3756  s_listing[nftAddress][tokenId] */\n      dup2\n      mstore\n      0x20\n      add\n      swap1\n      dup2\n      mstore\n      0x20\n      add\n      0x00\n      keccak256\n      0x00\n        /* \"contracts/NFTMarketPlace.sol\":3719:3756  delete s_listing[nftAddress][tokenId] */\n      dup1\n      dup3\n      add\n      0x00\n      swap1\n      sstore\n      0x01\n      dup3\n      add\n      exp(0x0100, 0x00)\n      dup2\n      sload\n      swap1\n      0xffffffffffffffffffffffffffffffffffffffff\n      mul\n      not\n      and\n      swap1\n      sstore\n      pop\n      pop\n        /* \"contracts/NFTMarketPlace.sol\":3810:3817  tokenId */\n      dup8\n        /* \"contracts/NFTMarketPlace.sol\":3798:3808  nftAddress */\n      dup10\n        /* \"contracts/NFTMarketPlace.sol\":3772:3818  CancelListing(msg.sender, nftAddress, tokenId) */\n      0xffffffffffffffffffffffffffffffffffffffff\n      and\n        /* \"contracts/NFTMarketPlace.sol\":3786:3796  msg.sender */\n      caller\n        /* \"contracts/NFTMarketPlace.sol\":3772:3818  CancelListing(msg.sender, nftAddress, tokenId) */\n      0xffffffffffffffffffffffffffffffffffffffff\n      and\n      0x061e64e10e5e57615a6fe38b48c81926f6999a2f5304d3e5e6b0d3cfac4865a5\n      mload(0x40)\n      mload(0x40)\n      dup1\n      swap2\n      sub\n      swap1\n      log4\n        /* \"contracts/NFTMarketPlace.sol\":1157:1310  {... */\n      pop\n        /* \"contracts/NFTMarketPlace.sol\":1609:1610  _ */\n      pop\n      pop\n        /* \"contracts/NFTMarketPlace.sol\":1420:1618  {... */\n      pop\n        /* \"contracts/NFTMarketPlace.sol\":3514:3826  function cancelListing(... */\n      pop\n      pop\n      pop\n      pop\n      pop\n      jump\t// out\n        /* \"contracts/NFTMarketPlace.sol\":4195:4432  function withDrawProceeds() external {... */\n    tag_39:\n        /* \"contracts/NFTMarketPlace.sol\":4243:4256  uint proceeds */\n      0x00\n        /* \"contracts/NFTMarketPlace.sol\":4259:4269  s_proceeds */\n      0x02\n        /* \"contracts/NFTMarketPlace.sol\":4259:4281  s_proceeds[msg.sender] */\n      0x00\n        /* \"contracts/NFTMarketPlace.sol\":4270:4280  msg.sender */\n      caller\n        /* \"contracts/NFTMarketPlace.sol\":4259:4281  s_proceeds[msg.sender] */\n      0xffffffffffffffffffffffffffffffffffffffff\n      and\n      0xffffffffffffffffffffffffffffffffffffffff\n      and\n      dup2\n      mstore\n      0x20\n      add\n      swap1\n      dup2\n      mstore\n      0x20\n      add\n      0x00\n      keccak256\n      sload\n        /* \"contracts/NFTMarketPlace.sol\":4243:4281  uint proceeds = s_proceeds[msg.sender] */\n      swap1\n      pop\n        /* \"contracts/NFTMarketPlace.sol\":4311:4312  0 */\n      0x00\n        /* \"contracts/NFTMarketPlace.sol\":4300:4308  proceeds */\n      dup2\n        /* \"contracts/NFTMarketPlace.sol\":4300:4312  proceeds > 0 */\n      gt\n        /* \"contracts/NFTMarketPlace.sol\":4292:4338  require(proceeds > 0, \"you have no proceeds!\") */\n      tag_111\n      jumpi\n      mload(0x40)\n      0x08c379a000000000000000000000000000000000000000000000000000000000\n      dup2\n      mstore\n      0x04\n      add\n      tag_112\n      swap1\n      tag_113\n      jump\t// in\n    tag_112:\n      mload(0x40)\n      dup1\n      swap2\n      sub\n      swap1\n      revert\n    tag_111:\n        /* \"contracts/NFTMarketPlace.sol\":4374:4375  0 */\n      0x00\n        /* \"contracts/NFTMarketPlace.sol\":4349:4359  s_proceeds */\n      0x02\n        /* \"contracts/NFTMarketPlace.sol\":4349:4371  s_proceeds[msg.sender] */\n      0x00\n        /* \"contracts/NFTMarketPlace.sol\":4360:4370  msg.sender */\n      caller\n        /* \"contracts/NFTMarketPlace.sol\":4349:4371  s_proceeds[msg.sender] */\n      0xffffffffffffffffffffffffffffffffffffffff\n      and\n      0xffffffffffffffffffffffffffffffffffffffff\n      and\n      dup2\n      mstore\n      0x20\n      add\n      swap1\n      dup2\n      mstore\n      0x20\n      add\n      0x00\n      keccak256\n        /* \"contracts/NFTMarketPlace.sol\":4349:4375  s_proceeds[msg.sender] = 0 */\n      dup2\n      swap1\n      sstore\n      pop\n        /* \"contracts/NFTMarketPlace.sol\":4394:4404  msg.sender */\n      caller\n        /* \"contracts/NFTMarketPlace.sol\":4386:4414  payable(msg.sender).transfer */\n      0xffffffffffffffffffffffffffffffffffffffff\n      and\n        /* \"contracts/NFTMarketPlace.sol\":4386:4424  payable(msg.sender).transfer(proceeds) */\n      0x08fc\n        /* \"contracts/NFTMarketPlace.sol\":4415:4423  proceeds */\n      dup3\n        /* \"contracts/NFTMarketPlace.sol\":4386:4424  payable(msg.sender).transfer(proceeds) */\n      swap1\n      dup2\n      iszero\n      mul\n      swap1\n      mload(0x40)\n      0x00\n      mload(0x40)\n      dup1\n      dup4\n      sub\n      dup2\n      dup6\n      dup9\n      dup9\n      call\n      swap4\n      pop\n      pop\n      pop\n      pop\n      iszero\n      dup1\n      iszero\n      tag_115\n      jumpi\n      returndatasize\n      0x00\n      dup1\n      returndatacopy\n      revert(0x00, returndatasize)\n    tag_115:\n      pop\n        /* \"contracts/NFTMarketPlace.sol\":4232:4432  {... */\n      pop\n        /* \"contracts/NFTMarketPlace.sol\":4195:4432  function withDrawProceeds() external {... */\n      jump\t// out\n        /* \"contracts/NFTMarketPlace.sol\":232:264  address public immutable i_owner */\n    tag_42:\n      immutable(\"0xd665d3e31f8da4f93255a62fad5ad42e8302e9c9a226187d84d77d13775d3867\")\n      dup2\n      jump\t// out\n        /* \"contracts/NFTMarketPlace.sol\":3834:4187  function updateListing(... */\n    tag_48:\n        /* \"contracts/NFTMarketPlace.sol\":3975:3985  nftAddress */\n      dup3\n        /* \"contracts/NFTMarketPlace.sol\":3987:3994  tokenId */\n      dup3\n        /* \"contracts/NFTMarketPlace.sol\":3996:4006  msg.sender */\n      caller\n        /* \"contracts/NFTMarketPlace.sol\":1431:1442  IERC721 nft */\n      0x00\n        /* \"contracts/NFTMarketPlace.sol\":1453:1463  nftAddress */\n      dup4\n        /* \"contracts/NFTMarketPlace.sol\":1431:1464  IERC721 nft = IERC721(nftAddress) */\n      swap1\n      pop\n        /* \"contracts/NFTMarketPlace.sol\":1521:1528  spender */\n      dup2\n        /* \"contracts/NFTMarketPlace.sol\":1497:1528  nft.ownerOf(tokenId) == spender */\n      0xffffffffffffffffffffffffffffffffffffffff\n      and\n        /* \"contracts/NFTMarketPlace.sol\":1497:1500  nft */\n      dup2\n        /* \"contracts/NFTMarketPlace.sol\":1497:1508  nft.ownerOf */\n      0xffffffffffffffffffffffffffffffffffffffff\n      and\n      0x6352211e\n        /* \"contracts/NFTMarketPlace.sol\":1509:1516  tokenId */\n      dup6\n        /* \"contracts/NFTMarketPlace.sol\":1497:1517  nft.ownerOf(tokenId) */\n      mload(0x40)\n      dup3\n      0xffffffff\n      and\n      0xe0\n      shl\n      dup2\n      mstore\n      0x04\n      add\n      tag_117\n      swap2\n      swap1\n      tag_17\n      jump\t// in\n    tag_117:\n      0x20\n      mload(0x40)\n      dup1\n      dup4\n      sub\n      dup2\n      dup7\n      gas\n      staticcall\n      iszero\n      dup1\n      iszero\n      tag_119\n      jumpi\n      returndatasize\n      0x00\n      dup1\n      returndatacopy\n      revert(0x00, returndatasize)\n    tag_119:\n      pop\n      pop\n      pop\n      pop\n      mload(0x40)\n      returndatasize\n      not(0x1f)\n      0x1f\n      dup3\n      add\n      and\n      dup3\n      add\n      dup1\n      0x40\n      mstore\n      pop\n      dup2\n      add\n      swap1\n      tag_120\n      swap2\n      swap1\n      tag_62\n      jump\t// in\n    tag_120:\n        /* \"contracts/NFTMarketPlace.sol\":1497:1528  nft.ownerOf(tokenId) == spender */\n      0xffffffffffffffffffffffffffffffffffffffff\n      and\n      eq\n        /* \"contracts/NFTMarketPlace.sol\":1475:1598  require(... */\n      tag_121\n      jumpi\n      mload(0x40)\n      0x08c379a000000000000000000000000000000000000000000000000000000000\n      dup2\n      mstore\n      0x04\n      add\n      tag_122\n      swap1\n      tag_65\n      jump\t// in\n    tag_122:\n      mload(0x40)\n      dup1\n      swap2\n      sub\n      swap1\n      revert\n    tag_121:\n        /* \"contracts/NFTMarketPlace.sol\":4026:4036  nftAddress */\n      dup7\n        /* \"contracts/NFTMarketPlace.sol\":4038:4045  tokenId */\n      dup7\n        /* \"contracts/NFTMarketPlace.sol\":1168:1190  Listing memory listing */\n      0x00\n        /* \"contracts/NFTMarketPlace.sol\":1193:1202  s_listing */\n      0x01\n        /* \"contracts/NFTMarketPlace.sol\":1193:1214  s_listing[nftAddress] */\n      0x00\n        /* \"contracts/NFTMarketPlace.sol\":1203:1213  nftAddress */\n      dup5\n        /* \"contracts/NFTMarketPlace.sol\":1193:1214  s_listing[nftAddress] */\n      0xffffffffffffffffffffffffffffffffffffffff\n      and\n      0xffffffffffffffffffffffffffffffffffffffff\n      and\n      dup2\n      mstore\n      0x20\n      add\n      swap1\n      dup2\n      mstore\n      0x20\n      add\n      0x00\n      keccak256\n        /* \"contracts/NFTMarketPlace.sol\":1193:1223  s_listing[nftAddress][tokenId] */\n      0x00\n        /* \"contracts/NFTMarketPlace.sol\":1215:1222  tokenId */\n      dup4\n        /* \"contracts/NFTMarketPlace.sol\":1193:1223  s_listing[nftAddress][tokenId] */\n      dup2\n      mstore\n      0x20\n      add\n      swap1\n      dup2\n      mstore\n      0x20\n      add\n      0x00\n      keccak256\n        /* \"contracts/NFTMarketPlace.sol\":1168:1223  Listing memory listing = s_listing[nftAddress][tokenId] */\n      mload(0x40)\n      dup1\n      0x40\n      add\n      0x40\n      mstore\n      swap1\n      dup2\n      0x00\n      dup3\n      add\n      sload\n      dup2\n      mstore\n      0x20\n      add\n      0x01\n      dup3\n      add\n      0x00\n      swap1\n      sload\n      swap1\n      0x0100\n      exp\n      swap1\n      div\n      0xffffffffffffffffffffffffffffffffffffffff\n      and\n      0xffffffffffffffffffffffffffffffffffffffff\n      and\n      0xffffffffffffffffffffffffffffffffffffffff\n      and\n      dup2\n      mstore\n      pop\n      pop\n      swap1\n      pop\n        /* \"contracts/NFTMarketPlace.sol\":1258:1259  0 */\n      0x00\n        /* \"contracts/NFTMarketPlace.sol\":1242:1249  listing */\n      dup2\n        /* \"contracts/NFTMarketPlace.sol\":1242:1255  listing.price */\n      0x00\n      add\n      mload\n        /* \"contracts/NFTMarketPlace.sol\":1242:1259  listing.price > 0 */\n      gt\n        /* \"contracts/NFTMarketPlace.sol\":1234:1290  require(listing.price > 0, \"Current NFT has no listed!\") */\n      tag_124\n      jumpi\n      mload(0x40)\n      0x08c379a000000000000000000000000000000000000000000000000000000000\n      dup2\n      mstore\n      0x04\n      add\n      tag_125\n      swap1\n      tag_81\n      jump\t// in\n    tag_125:\n      mload(0x40)\n      dup1\n      swap2\n      sub\n      swap1\n      revert\n    tag_124:\n        /* \"contracts/NFTMarketPlace.sol\":4102:4110  newPrice */\n      dup8\n        /* \"contracts/NFTMarketPlace.sol\":4063:4072  s_listing */\n      0x01\n        /* \"contracts/NFTMarketPlace.sol\":4063:4084  s_listing[nftAddress] */\n      0x00\n        /* \"contracts/NFTMarketPlace.sol\":4073:4083  nftAddress */\n      dup13\n        /* \"contracts/NFTMarketPlace.sol\":4063:4084  s_listing[nftAddress] */\n      0xffffffffffffffffffffffffffffffffffffffff\n      and\n      0xffffffffffffffffffffffffffffffffffffffff\n      and\n      dup2\n      mstore\n      0x20\n      add\n      swap1\n      dup2\n      mstore\n      0x20\n      add\n      0x00\n      keccak256\n        /* \"contracts/NFTMarketPlace.sol\":4063:4093  s_listing[nftAddress][tokenId] */\n      0x00\n        /* \"contracts/NFTMarketPlace.sol\":4085:4092  tokenId */\n      dup12\n        /* \"contracts/NFTMarketPlace.sol\":4063:4093  s_listing[nftAddress][tokenId] */\n      dup2\n      mstore\n      0x20\n      add\n      swap1\n      dup2\n      mstore\n      0x20\n      add\n      0x00\n      keccak256\n        /* \"contracts/NFTMarketPlace.sol\":4063:4099  s_listing[nftAddress][tokenId].price */\n      0x00\n      add\n        /* \"contracts/NFTMarketPlace.sol\":4063:4110  s_listing[nftAddress][tokenId].price = newPrice */\n      dup2\n      swap1\n      sstore\n      pop\n        /* \"contracts/NFTMarketPlace.sol\":4161:4168  tokenId */\n      dup9\n        /* \"contracts/NFTMarketPlace.sol\":4149:4159  nftAddress */\n      dup11\n        /* \"contracts/NFTMarketPlace.sol\":4126:4179  ItemListed(msg.sender, nftAddress, tokenId, newPrice) */\n      0xffffffffffffffffffffffffffffffffffffffff\n      and\n        /* \"contracts/NFTMarketPlace.sol\":4137:4147  msg.sender */\n      caller\n        /* \"contracts/NFTMarketPlace.sol\":4126:4179  ItemListed(msg.sender, nftAddress, tokenId, newPrice) */\n      0xffffffffffffffffffffffffffffffffffffffff\n      and\n      0xd547e933094f12a9159076970143ebe73234e64480317844b0dcb36117116de4\n        /* \"contracts/NFTMarketPlace.sol\":4170:4178  newPrice */\n      dup12\n        /* \"contracts/NFTMarketPlace.sol\":4126:4179  ItemListed(msg.sender, nftAddress, tokenId, newPrice) */\n      mload(0x40)\n      tag_127\n      swap2\n      swap1\n      tag_17\n      jump\t// in\n    tag_127:\n      mload(0x40)\n      dup1\n      swap2\n      sub\n      swap1\n      log4\n        /* \"contracts/NFTMarketPlace.sol\":1157:1310  {... */\n      pop\n        /* \"contracts/NFTMarketPlace.sol\":1609:1610  _ */\n      pop\n      pop\n        /* \"contracts/NFTMarketPlace.sol\":1420:1618  {... */\n      pop\n        /* \"contracts/NFTMarketPlace.sol\":3834:4187  function updateListing(... */\n      pop\n      pop\n      pop\n      pop\n      pop\n      pop\n      jump\t// out\n        /* \"@openzeppelin/contracts/utils/ReentrancyGuard.sol\":2431:2738  function _nonReentrantBefore() private {... */\n    tag_84:\n        /* \"@openzeppelin/contracts/utils/ReentrancyGuard.sol\":1755:1756  2 */\n      0x02\n        /* \"@openzeppelin/contracts/utils/ReentrancyGuard.sol\":2558:2565  _status */\n      sload(0x00)\n        /* \"@openzeppelin/contracts/utils/ReentrancyGuard.sol\":2558:2576  _status == ENTERED */\n      sub\n        /* \"@openzeppelin/contracts/utils/ReentrancyGuard.sol\":2554:2640  if (_status == ENTERED) {... */\n      tag_129\n      jumpi\n        /* \"@openzeppelin/contracts/utils/ReentrancyGuard.sol\":2599:2629  ReentrancyGuardReentrantCall() */\n      mload(0x40)\n      0x3ee5aeb500000000000000000000000000000000000000000000000000000000\n      dup2\n      mstore\n      0x04\n      add\n      mload(0x40)\n      dup1\n      swap2\n      sub\n      swap1\n      revert\n        /* \"@openzeppelin/contracts/utils/ReentrancyGuard.sol\":2554:2640  if (_status == ENTERED) {... */\n    tag_129:\n        /* \"@openzeppelin/contracts/utils/ReentrancyGuard.sol\":1755:1756  2 */\n      0x02\n        /* \"@openzeppelin/contracts/utils/ReentrancyGuard.sol\":2714:2721  _status */\n      0x00\n        /* \"@openzeppelin/contracts/utils/ReentrancyGuard.sol\":2714:2731  _status = ENTERED */\n      dup2\n      swap1\n      sstore\n      pop\n        /* \"@openzeppelin/contracts/utils/ReentrancyGuard.sol\":2431:2738  function _nonReentrantBefore() private {... */\n      jump\t// out\n        /* \"@openzeppelin/contracts/utils/ReentrancyGuard.sol\":2744:2952  function _nonReentrantAfter() private {... */\n    tag_98:\n        /* \"@openzeppelin/contracts/utils/ReentrancyGuard.sol\":1713:1714  1 */\n      0x01\n        /* \"@openzeppelin/contracts/utils/ReentrancyGuard.sol\":2924:2931  _status */\n      0x00\n        /* \"@openzeppelin/contracts/utils/ReentrancyGuard.sol\":2924:2945  _status = NOT_ENTERED */\n      dup2\n      swap1\n      sstore\n      pop\n        /* \"@openzeppelin/contracts/utils/ReentrancyGuard.sol\":2744:2952  function _nonReentrantAfter() private {... */\n      jump\t// out\n    tag_51:\n      mload(0x40)\n      dup1\n      0x40\n      add\n      0x40\n      mstore\n      dup1\n      0x00\n      dup2\n      mstore\n      0x20\n      add\n      and(0xffffffffffffffffffffffffffffffffffffffff, 0x00)\n      dup2\n      mstore\n      pop\n      swap1\n      jump\t// out\n        /* \"#utility.yul\":88:205   */\n    tag_132:\n        /* \"#utility.yul\":197:198   */\n      0x00\n        /* \"#utility.yul\":194:195   */\n      dup1\n        /* \"#utility.yul\":187:199   */\n      revert\n        /* \"#utility.yul\":334:460   */\n    tag_134:\n        /* \"#utility.yul\":371:378   */\n      0x00\n        /* \"#utility.yul\":411:453   */\n      0xffffffffffffffffffffffffffffffffffffffff\n        /* \"#utility.yul\":404:409   */\n      dup3\n        /* \"#utility.yul\":400:454   */\n      and\n        /* \"#utility.yul\":389:454   */\n      swap1\n      pop\n        /* \"#utility.yul\":334:460   */\n      swap2\n      swap1\n      pop\n      jump\t// out\n        /* \"#utility.yul\":466:562   */\n    tag_135:\n        /* \"#utility.yul\":503:510   */\n      0x00\n        /* \"#utility.yul\":532:556   */\n      tag_169\n        /* \"#utility.yul\":550:555   */\n      dup3\n        /* \"#utility.yul\":532:556   */\n      tag_134\n      jump\t// in\n    tag_169:\n        /* \"#utility.yul\":521:556   */\n      swap1\n      pop\n        /* \"#utility.yul\":466:562   */\n      swap2\n      swap1\n      pop\n      jump\t// out\n        /* \"#utility.yul\":568:690   */\n    tag_136:\n        /* \"#utility.yul\":641:665   */\n      tag_171\n        /* \"#utility.yul\":659:664   */\n      dup2\n        /* \"#utility.yul\":641:665   */\n      tag_135\n      jump\t// in\n    tag_171:\n        /* \"#utility.yul\":634:639   */\n      dup2\n        /* \"#utility.yul\":631:666   */\n      eq\n        /* \"#utility.yul\":621:684   */\n      tag_172\n      jumpi\n        /* \"#utility.yul\":680:681   */\n      0x00\n        /* \"#utility.yul\":677:678   */\n      dup1\n        /* \"#utility.yul\":670:682   */\n      revert\n        /* \"#utility.yul\":621:684   */\n    tag_172:\n        /* \"#utility.yul\":568:690   */\n      pop\n      jump\t// out\n        /* \"#utility.yul\":696:835   */\n    tag_137:\n        /* \"#utility.yul\":742:747   */\n      0x00\n        /* \"#utility.yul\":780:786   */\n      dup2\n        /* \"#utility.yul\":767:787   */\n      calldataload\n        /* \"#utility.yul\":758:787   */\n      swap1\n      pop\n        /* \"#utility.yul\":796:829   */\n      tag_174\n        /* \"#utility.yul\":823:828   */\n      dup2\n        /* \"#utility.yul\":796:829   */\n      tag_136\n      jump\t// in\n    tag_174:\n        /* \"#utility.yul\":696:835   */\n      swap3\n      swap2\n      pop\n      pop\n      jump\t// out\n        /* \"#utility.yul\":841:1170   */\n    tag_14:\n        /* \"#utility.yul\":900:906   */\n      0x00\n        /* \"#utility.yul\":949:951   */\n      0x20\n        /* \"#utility.yul\":937:946   */\n      dup3\n        /* \"#utility.yul\":928:935   */\n      dup5\n        /* \"#utility.yul\":924:947   */\n      sub\n        /* \"#utility.yul\":920:952   */\n      slt\n        /* \"#utility.yul\":917:1036   */\n      iszero\n      tag_176\n      jumpi\n        /* \"#utility.yul\":955:1034   */\n      tag_177\n      tag_132\n      jump\t// in\n    tag_177:\n        /* \"#utility.yul\":917:1036   */\n    tag_176:\n        /* \"#utility.yul\":1075:1076   */\n      0x00\n        /* \"#utility.yul\":1100:1153   */\n      tag_178\n        /* \"#utility.yul\":1145:1152   */\n      dup5\n        /* \"#utility.yul\":1136:1142   */\n      dup3\n        /* \"#utility.yul\":1125:1134   */\n      dup6\n        /* \"#utility.yul\":1121:1143   */\n      add\n        /* \"#utility.yul\":1100:1153   */\n      tag_137\n      jump\t// in\n    tag_178:\n        /* \"#utility.yul\":1090:1153   */\n      swap2\n      pop\n        /* \"#utility.yul\":1046:1163   */\n      pop\n        /* \"#utility.yul\":841:1170   */\n      swap3\n      swap2\n      pop\n      pop\n      jump\t// out\n        /* \"#utility.yul\":1176:1253   */\n    tag_138:\n        /* \"#utility.yul\":1213:1220   */\n      0x00\n        /* \"#utility.yul\":1242:1247   */\n      dup2\n        /* \"#utility.yul\":1231:1247   */\n      swap1\n      pop\n        /* \"#utility.yul\":1176:1253   */\n      swap2\n      swap1\n      pop\n      jump\t// out\n        /* \"#utility.yul\":1259:1377   */\n    tag_139:\n        /* \"#utility.yul\":1346:1370   */\n      tag_181\n        /* \"#utility.yul\":1364:1369   */\n      dup2\n        /* \"#utility.yul\":1346:1370   */\n      tag_138\n      jump\t// in\n    tag_181:\n        /* \"#utility.yul\":1341:1344   */\n      dup3\n        /* \"#utility.yul\":1334:1371   */\n      mstore\n        /* \"#utility.yul\":1259:1377   */\n      pop\n      pop\n      jump\t// out\n        /* \"#utility.yul\":1383:1605   */\n    tag_17:\n        /* \"#utility.yul\":1476:1480   */\n      0x00\n        /* \"#utility.yul\":1514:1516   */\n      0x20\n        /* \"#utility.yul\":1503:1512   */\n      dup3\n        /* \"#utility.yul\":1499:1517   */\n      add\n        /* \"#utility.yul\":1491:1517   */\n      swap1\n      pop\n        /* \"#utility.yul\":1527:1598   */\n      tag_183\n        /* \"#utility.yul\":1595:1596   */\n      0x00\n        /* \"#utility.yul\":1584:1593   */\n      dup4\n        /* \"#utility.yul\":1580:1597   */\n      add\n        /* \"#utility.yul\":1571:1577   */\n      dup5\n        /* \"#utility.yul\":1527:1598   */\n      tag_139\n      jump\t// in\n    tag_183:\n        /* \"#utility.yul\":1383:1605   */\n      swap3\n      swap2\n      pop\n      pop\n      jump\t// out\n        /* \"#utility.yul\":1611:1733   */\n    tag_140:\n        /* \"#utility.yul\":1684:1708   */\n      tag_185\n        /* \"#utility.yul\":1702:1707   */\n      dup2\n        /* \"#utility.yul\":1684:1708   */\n      tag_138\n      jump\t// in\n    tag_185:\n        /* \"#utility.yul\":1677:1682   */\n      dup2\n        /* \"#utility.yul\":1674:1709   */\n      eq\n        /* \"#utility.yul\":1664:1727   */\n      tag_186\n      jumpi\n        /* \"#utility.yul\":1723:1724   */\n      0x00\n        /* \"#utility.yul\":1720:1721   */\n      dup1\n        /* \"#utility.yul\":1713:1725   */\n      revert\n        /* \"#utility.yul\":1664:1727   */\n    tag_186:\n        /* \"#utility.yul\":1611:1733   */\n      pop\n      jump\t// out\n        /* \"#utility.yul\":1739:1878   */\n    tag_141:\n        /* \"#utility.yul\":1785:1790   */\n      0x00\n        /* \"#utility.yul\":1823:1829   */\n      dup2\n        /* \"#utility.yul\":1810:1830   */\n      calldataload\n        /* \"#utility.yul\":1801:1830   */\n      swap1\n      pop\n        /* \"#utility.yul\":1839:1872   */\n      tag_188\n        /* \"#utility.yul\":1866:1871   */\n      dup2\n        /* \"#utility.yul\":1839:1872   */\n      tag_140\n      jump\t// in\n    tag_188:\n        /* \"#utility.yul\":1739:1878   */\n      swap3\n      swap2\n      pop\n      pop\n      jump\t// out\n        /* \"#utility.yul\":1884:2358   */\n    tag_21:\n        /* \"#utility.yul\":1952:1958   */\n      0x00\n        /* \"#utility.yul\":1960:1966   */\n      dup1\n        /* \"#utility.yul\":2009:2011   */\n      0x40\n        /* \"#utility.yul\":1997:2006   */\n      dup4\n        /* \"#utility.yul\":1988:1995   */\n      dup6\n        /* \"#utility.yul\":1984:2007   */\n      sub\n        /* \"#utility.yul\":1980:2012   */\n      slt\n        /* \"#utility.yul\":1977:2096   */\n      iszero\n      tag_190\n      jumpi\n        /* \"#utility.yul\":2015:2094   */\n      tag_191\n      tag_132\n      jump\t// in\n    tag_191:\n        /* \"#utility.yul\":1977:2096   */\n    tag_190:\n        /* \"#utility.yul\":2135:2136   */\n      0x00\n        /* \"#utility.yul\":2160:2213   */\n      tag_192\n        /* \"#utility.yul\":2205:2212   */\n      dup6\n        /* \"#utility.yul\":2196:2202   */\n      dup3\n        /* \"#utility.yul\":2185:2194   */\n      dup7\n        /* \"#utility.yul\":2181:2203   */\n      add\n        /* \"#utility.yul\":2160:2213   */\n      tag_137\n      jump\t// in\n    tag_192:\n        /* \"#utility.yul\":2150:2213   */\n      swap3\n      pop\n        /* \"#utility.yul\":2106:2223   */\n      pop\n        /* \"#utility.yul\":2262:2264   */\n      0x20\n        /* \"#utility.yul\":2288:2341   */\n      tag_193\n        /* \"#utility.yul\":2333:2340   */\n      dup6\n        /* \"#utility.yul\":2324:2330   */\n      dup3\n        /* \"#utility.yul\":2313:2322   */\n      dup7\n        /* \"#utility.yul\":2309:2331   */\n      add\n        /* \"#utility.yul\":2288:2341   */\n      tag_141\n      jump\t// in\n    tag_193:\n        /* \"#utility.yul\":2278:2341   */\n      swap2\n      pop\n        /* \"#utility.yul\":2233:2351   */\n      pop\n        /* \"#utility.yul\":1884:2358   */\n      swap3\n      pop\n      swap3\n      swap1\n      pop\n      jump\t// out\n        /* \"#utility.yul\":2364:2472   */\n    tag_142:\n        /* \"#utility.yul\":2441:2465   */\n      tag_195\n        /* \"#utility.yul\":2459:2464   */\n      dup2\n        /* \"#utility.yul\":2441:2465   */\n      tag_138\n      jump\t// in\n    tag_195:\n        /* \"#utility.yul\":2436:2439   */\n      dup3\n        /* \"#utility.yul\":2429:2466   */\n      mstore\n        /* \"#utility.yul\":2364:2472   */\n      pop\n      pop\n      jump\t// out\n        /* \"#utility.yul\":2478:2586   */\n    tag_143:\n        /* \"#utility.yul\":2555:2579   */\n      tag_197\n        /* \"#utility.yul\":2573:2578   */\n      dup2\n        /* \"#utility.yul\":2555:2579   */\n      tag_135\n      jump\t// in\n    tag_197:\n        /* \"#utility.yul\":2550:2553   */\n      dup3\n        /* \"#utility.yul\":2543:2580   */\n      mstore\n        /* \"#utility.yul\":2478:2586   */\n      pop\n      pop\n      jump\t// out\n        /* \"#utility.yul\":2662:3170   */\n    tag_144:\n        /* \"#utility.yul\":2807:2811   */\n      0x40\n        /* \"#utility.yul\":2802:2805   */\n      dup3\n        /* \"#utility.yul\":2798:2812   */\n      add\n        /* \"#utility.yul\":2895:2899   */\n      0x00\n        /* \"#utility.yul\":2888:2893   */\n      dup3\n        /* \"#utility.yul\":2884:2900   */\n      add\n        /* \"#utility.yul\":2878:2901   */\n      mload\n        /* \"#utility.yul\":2914:2977   */\n      tag_199\n        /* \"#utility.yul\":2971:2975   */\n      0x00\n        /* \"#utility.yul\":2966:2969   */\n      dup6\n        /* \"#utility.yul\":2962:2976   */\n      add\n        /* \"#utility.yul\":2948:2960   */\n      dup3\n        /* \"#utility.yul\":2914:2977   */\n      tag_142\n      jump\t// in\n    tag_199:\n        /* \"#utility.yul\":2822:2987   */\n      pop\n        /* \"#utility.yul\":3071:3075   */\n      0x20\n        /* \"#utility.yul\":3064:3069   */\n      dup3\n        /* \"#utility.yul\":3060:3076   */\n      add\n        /* \"#utility.yul\":3054:3077   */\n      mload\n        /* \"#utility.yul\":3090:3153   */\n      tag_200\n        /* \"#utility.yul\":3147:3151   */\n      0x20\n        /* \"#utility.yul\":3142:3145   */\n      dup6\n        /* \"#utility.yul\":3138:3152   */\n      add\n        /* \"#utility.yul\":3124:3136   */\n      dup3\n        /* \"#utility.yul\":3090:3153   */\n      tag_143\n      jump\t// in\n    tag_200:\n        /* \"#utility.yul\":2997:3163   */\n      pop\n        /* \"#utility.yul\":2776:3170   */\n      pop\n        /* \"#utility.yul\":2662:3170   */\n      pop\n      pop\n      jump\t// out\n        /* \"#utility.yul\":3176:3494   */\n    tag_24:\n        /* \"#utility.yul\":3317:3321   */\n      0x00\n        /* \"#utility.yul\":3355:3357   */\n      0x40\n        /* \"#utility.yul\":3344:3353   */\n      dup3\n        /* \"#utility.yul\":3340:3358   */\n      add\n        /* \"#utility.yul\":3332:3358   */\n      swap1\n      pop\n        /* \"#utility.yul\":3368:3487   */\n      tag_202\n        /* \"#utility.yul\":3484:3485   */\n      0x00\n        /* \"#utility.yul\":3473:3482   */\n      dup4\n        /* \"#utility.yul\":3469:3486   */\n      add\n        /* \"#utility.yul\":3460:3466   */\n      dup5\n        /* \"#utility.yul\":3368:3487   */\n      tag_144\n      jump\t// in\n    tag_202:\n        /* \"#utility.yul\":3176:3494   */\n      swap3\n      swap2\n      pop\n      pop\n      jump\t// out\n        /* \"#utility.yul\":3500:4119   */\n    tag_28:\n        /* \"#utility.yul\":3577:3583   */\n      0x00\n        /* \"#utility.yul\":3585:3591   */\n      dup1\n        /* \"#utility.yul\":3593:3599   */\n      0x00\n        /* \"#utility.yul\":3642:3644   */\n      0x60\n        /* \"#utility.yul\":3630:3639   */\n      dup5\n        /* \"#utility.yul\":3621:3628   */\n      dup7\n        /* \"#utility.yul\":3617:3640   */\n      sub\n        /* \"#utility.yul\":3613:3645   */\n      slt\n        /* \"#utility.yul\":3610:3729   */\n      iszero\n      tag_204\n      jumpi\n        /* \"#utility.yul\":3648:3727   */\n      tag_205\n      tag_132\n      jump\t// in\n    tag_205:\n        /* \"#utility.yul\":3610:3729   */\n    tag_204:\n        /* \"#utility.yul\":3768:3769   */\n      0x00\n        /* \"#utility.yul\":3793:3846   */\n      tag_206\n        /* \"#utility.yul\":3838:3845   */\n      dup7\n        /* \"#utility.yul\":3829:3835   */\n      dup3\n        /* \"#utility.yul\":3818:3827   */\n      dup8\n        /* \"#utility.yul\":3814:3836   */\n      add\n        /* \"#utility.yul\":3793:3846   */\n      tag_137\n      jump\t// in\n    tag_206:\n        /* \"#utility.yul\":3783:3846   */\n      swap4\n      pop\n        /* \"#utility.yul\":3739:3856   */\n      pop\n        /* \"#utility.yul\":3895:3897   */\n      0x20\n        /* \"#utility.yul\":3921:3974   */\n      tag_207\n        /* \"#utility.yul\":3966:3973   */\n      dup7\n        /* \"#utility.yul\":3957:3963   */\n      dup3\n        /* \"#utility.yul\":3946:3955   */\n      dup8\n        /* \"#utility.yul\":3942:3964   */\n      add\n        /* \"#utility.yul\":3921:3974   */\n      tag_141\n      jump\t// in\n    tag_207:\n        /* \"#utility.yul\":3911:3974   */\n      swap3\n      pop\n        /* \"#utility.yul\":3866:3984   */\n      pop\n        /* \"#utility.yul\":4023:4025   */\n      0x40\n        /* \"#utility.yul\":4049:4102   */\n      tag_208\n        /* \"#utility.yul\":4094:4101   */\n      dup7\n        /* \"#utility.yul\":4085:4091   */\n      dup3\n        /* \"#utility.yul\":4074:4083   */\n      dup8\n        /* \"#utility.yul\":4070:4092   */\n      add\n        /* \"#utility.yul\":4049:4102   */\n      tag_141\n      jump\t// in\n    tag_208:\n        /* \"#utility.yul\":4039:4102   */\n      swap2\n      pop\n        /* \"#utility.yul\":3994:4112   */\n      pop\n        /* \"#utility.yul\":3500:4119   */\n      swap3\n      pop\n      swap3\n      pop\n      swap3\n      jump\t// out\n        /* \"#utility.yul\":4125:4243   */\n    tag_145:\n        /* \"#utility.yul\":4212:4236   */\n      tag_210\n        /* \"#utility.yul\":4230:4235   */\n      dup2\n        /* \"#utility.yul\":4212:4236   */\n      tag_135\n      jump\t// in\n    tag_210:\n        /* \"#utility.yul\":4207:4210   */\n      dup3\n        /* \"#utility.yul\":4200:4237   */\n      mstore\n        /* \"#utility.yul\":4125:4243   */\n      pop\n      pop\n      jump\t// out\n        /* \"#utility.yul\":4249:4471   */\n    tag_44:\n        /* \"#utility.yul\":4342:4346   */\n      0x00\n        /* \"#utility.yul\":4380:4382   */\n      0x20\n        /* \"#utility.yul\":4369:4378   */\n      dup3\n        /* \"#utility.yul\":4365:4383   */\n      add\n        /* \"#utility.yul\":4357:4383   */\n      swap1\n      pop\n        /* \"#utility.yul\":4393:4464   */\n      tag_212\n        /* \"#utility.yul\":4461:4462   */\n      0x00\n        /* \"#utility.yul\":4450:4459   */\n      dup4\n        /* \"#utility.yul\":4446:4463   */\n      add\n        /* \"#utility.yul\":4437:4443   */\n      dup5\n        /* \"#utility.yul\":4393:4464   */\n      tag_145\n      jump\t// in\n    tag_212:\n        /* \"#utility.yul\":4249:4471   */\n      swap3\n      swap2\n      pop\n      pop\n      jump\t// out\n        /* \"#utility.yul\":4477:4646   */\n    tag_146:\n        /* \"#utility.yul\":4561:4572   */\n      0x00\n        /* \"#utility.yul\":4595:4601   */\n      dup3\n        /* \"#utility.yul\":4590:4593   */\n      dup3\n        /* \"#utility.yul\":4583:4602   */\n      mstore\n        /* \"#utility.yul\":4635:4639   */\n      0x20\n        /* \"#utility.yul\":4630:4633   */\n      dup3\n        /* \"#utility.yul\":4626:4640   */\n      add\n        /* \"#utility.yul\":4611:4640   */\n      swap1\n      pop\n        /* \"#utility.yul\":4477:4646   */\n      swap3\n      swap2\n      pop\n      pop\n      jump\t// out\n        /* \"#utility.yul\":4652:4825   */\n    tag_147:\n        /* \"#utility.yul\":4792:4817   */\n      0x43757272656e74204e465420686173206c697374656421000000000000000000\n        /* \"#utility.yul\":4788:4789   */\n      0x00\n        /* \"#utility.yul\":4780:4786   */\n      dup3\n        /* \"#utility.yul\":4776:4790   */\n      add\n        /* \"#utility.yul\":4769:4818   */\n      mstore\n        /* \"#utility.yul\":4652:4825   */\n      pop\n      jump\t// out\n        /* \"#utility.yul\":4831:5197   */\n    tag_148:\n        /* \"#utility.yul\":4973:4976   */\n      0x00\n        /* \"#utility.yul\":4994:5061   */\n      tag_216\n        /* \"#utility.yul\":5058:5060   */\n      0x17\n        /* \"#utility.yul\":5053:5056   */\n      dup4\n        /* \"#utility.yul\":4994:5061   */\n      tag_146\n      jump\t// in\n    tag_216:\n        /* \"#utility.yul\":4987:5061   */\n      swap2\n      pop\n        /* \"#utility.yul\":5070:5163   */\n      tag_217\n        /* \"#utility.yul\":5159:5162   */\n      dup3\n        /* \"#utility.yul\":5070:5163   */\n      tag_147\n      jump\t// in\n    tag_217:\n        /* \"#utility.yul\":5188:5190   */\n      0x20\n        /* \"#utility.yul\":5183:5186   */\n      dup3\n        /* \"#utility.yul\":5179:5191   */\n      add\n        /* \"#utility.yul\":5172:5191   */\n      swap1\n      pop\n        /* \"#utility.yul\":4831:5197   */\n      swap2\n      swap1\n      pop\n      jump\t// out\n        /* \"#utility.yul\":5203:5622   */\n    tag_56:\n        /* \"#utility.yul\":5369:5373   */\n      0x00\n        /* \"#utility.yul\":5407:5409   */\n      0x20\n        /* \"#utility.yul\":5396:5405   */\n      dup3\n        /* \"#utility.yul\":5392:5410   */\n      add\n        /* \"#utility.yul\":5384:5410   */\n      swap1\n      pop\n        /* \"#utility.yul\":5456:5465   */\n      dup2\n        /* \"#utility.yul\":5450:5454   */\n      dup2\n        /* \"#utility.yul\":5446:5466   */\n      sub\n        /* \"#utility.yul\":5442:5443   */\n      0x00\n        /* \"#utility.yul\":5431:5440   */\n      dup4\n        /* \"#utility.yul\":5427:5444   */\n      add\n        /* \"#utility.yul\":5420:5467   */\n      mstore\n        /* \"#utility.yul\":5484:5615   */\n      tag_219\n        /* \"#utility.yul\":5610:5614   */\n      dup2\n        /* \"#utility.yul\":5484:5615   */\n      tag_148\n      jump\t// in\n    tag_219:\n        /* \"#utility.yul\":5476:5615   */\n      swap1\n      pop\n        /* \"#utility.yul\":5203:5622   */\n      swap2\n      swap1\n      pop\n      jump\t// out\n        /* \"#utility.yul\":5628:5771   */\n    tag_149:\n        /* \"#utility.yul\":5685:5690   */\n      0x00\n        /* \"#utility.yul\":5716:5722   */\n      dup2\n        /* \"#utility.yul\":5710:5723   */\n      mload\n        /* \"#utility.yul\":5701:5723   */\n      swap1\n      pop\n        /* \"#utility.yul\":5732:5765   */\n      tag_221\n        /* \"#utility.yul\":5759:5764   */\n      dup2\n        /* \"#utility.yul\":5732:5765   */\n      tag_136\n      jump\t// in\n    tag_221:\n        /* \"#utility.yul\":5628:5771   */\n      swap3\n      swap2\n      pop\n      pop\n      jump\t// out\n        /* \"#utility.yul\":5777:6128   */\n    tag_62:\n        /* \"#utility.yul\":5847:5853   */\n      0x00\n        /* \"#utility.yul\":5896:5898   */\n      0x20\n        /* \"#utility.yul\":5884:5893   */\n      dup3\n        /* \"#utility.yul\":5875:5882   */\n      dup5\n        /* \"#utility.yul\":5871:5894   */\n      sub\n        /* \"#utility.yul\":5867:5899   */\n      slt\n        /* \"#utility.yul\":5864:5983   */\n      iszero\n      tag_223\n      jumpi\n        /* \"#utility.yul\":5902:5981   */\n      tag_224\n      tag_132\n      jump\t// in\n    tag_224:\n        /* \"#utility.yul\":5864:5983   */\n    tag_223:\n        /* \"#utility.yul\":6022:6023   */\n      0x00\n        /* \"#utility.yul\":6047:6111   */\n      tag_225\n        /* \"#utility.yul\":6103:6110   */\n      dup5\n        /* \"#utility.yul\":6094:6100   */\n      dup3\n        /* \"#utility.yul\":6083:6092   */\n      dup6\n        /* \"#utility.yul\":6079:6101   */\n      add\n        /* \"#utility.yul\":6047:6111   */\n      tag_149\n      jump\t// in\n    tag_225:\n        /* \"#utility.yul\":6037:6111   */\n      swap2\n      pop\n        /* \"#utility.yul\":5993:6121   */\n      pop\n        /* \"#utility.yul\":5777:6128   */\n      swap3\n      swap2\n      pop\n      pop\n      jump\t// out\n        /* \"#utility.yul\":6134:6363   */\n    tag_150:\n        /* \"#utility.yul\":6274:6308   */\n      0x54686973204e4654206973206e6f742062656c6f6e6720746f2063757272656e\n        /* \"#utility.yul\":6270:6271   */\n      0x00\n        /* \"#utility.yul\":6262:6268   */\n      dup3\n        /* \"#utility.yul\":6258:6272   */\n      add\n        /* \"#utility.yul\":6251:6309   */\n      mstore\n        /* \"#utility.yul\":6343:6355   */\n      0x7420616464726573732100000000000000000000000000000000000000000000\n        /* \"#utility.yul\":6338:6340   */\n      0x20\n        /* \"#utility.yul\":6330:6336   */\n      dup3\n        /* \"#utility.yul\":6326:6341   */\n      add\n        /* \"#utility.yul\":6319:6356   */\n      mstore\n        /* \"#utility.yul\":6134:6363   */\n      pop\n      jump\t// out\n        /* \"#utility.yul\":6369:6735   */\n    tag_151:\n        /* \"#utility.yul\":6511:6514   */\n      0x00\n        /* \"#utility.yul\":6532:6599   */\n      tag_228\n        /* \"#utility.yul\":6596:6598   */\n      0x2a\n        /* \"#utility.yul\":6591:6594   */\n      dup4\n        /* \"#utility.yul\":6532:6599   */\n      tag_146\n      jump\t// in\n    tag_228:\n        /* \"#utility.yul\":6525:6599   */\n      swap2\n      pop\n        /* \"#utility.yul\":6608:6701   */\n      tag_229\n        /* \"#utility.yul\":6697:6700   */\n      dup3\n        /* \"#utility.yul\":6608:6701   */\n      tag_150\n      jump\t// in\n    tag_229:\n        /* \"#utility.yul\":6726:6728   */\n      0x40\n        /* \"#utility.yul\":6721:6724   */\n      dup3\n        /* \"#utility.yul\":6717:6729   */\n      add\n        /* \"#utility.yul\":6710:6729   */\n      swap1\n      pop\n        /* \"#utility.yul\":6369:6735   */\n      swap2\n      swap1\n      pop\n      jump\t// out\n        /* \"#utility.yul\":6741:7160   */\n    tag_65:\n        /* \"#utility.yul\":6907:6911   */\n      0x00\n        /* \"#utility.yul\":6945:6947   */\n      0x20\n        /* \"#utility.yul\":6934:6943   */\n      dup3\n        /* \"#utility.yul\":6930:6948   */\n      add\n        /* \"#utility.yul\":6922:6948   */\n      swap1\n      pop\n        /* \"#utility.yul\":6994:7003   */\n      dup2\n        /* \"#utility.yul\":6988:6992   */\n      dup2\n        /* \"#utility.yul\":6984:7004   */\n      sub\n        /* \"#utility.yul\":6980:6981   */\n      0x00\n        /* \"#utility.yul\":6969:6978   */\n      dup4\n        /* \"#utility.yul\":6965:6982   */\n      add\n        /* \"#utility.yul\":6958:7005   */\n      mstore\n        /* \"#utility.yul\":7022:7153   */\n      tag_231\n        /* \"#utility.yul\":7148:7152   */\n      dup2\n        /* \"#utility.yul\":7022:7153   */\n      tag_151\n      jump\t// in\n    tag_231:\n        /* \"#utility.yul\":7014:7153   */\n      swap1\n      pop\n        /* \"#utility.yul\":6741:7160   */\n      swap2\n      swap1\n      pop\n      jump\t// out\n        /* \"#utility.yul\":7166:7346   */\n    tag_152:\n        /* \"#utility.yul\":7306:7338   */\n      0x4e6674207072696365206d757374206e656564206f766572207a65726f210000\n        /* \"#utility.yul\":7302:7303   */\n      0x00\n        /* \"#utility.yul\":7294:7300   */\n      dup3\n        /* \"#utility.yul\":7290:7304   */\n      add\n        /* \"#utility.yul\":7283:7339   */\n      mstore\n        /* \"#utility.yul\":7166:7346   */\n      pop\n      jump\t// out\n        /* \"#utility.yul\":7352:7718   */\n    tag_153:\n        /* \"#utility.yul\":7494:7497   */\n      0x00\n        /* \"#utility.yul\":7515:7582   */\n      tag_234\n        /* \"#utility.yul\":7579:7581   */\n      0x1e\n        /* \"#utility.yul\":7574:7577   */\n      dup4\n        /* \"#utility.yul\":7515:7582   */\n      tag_146\n      jump\t// in\n    tag_234:\n        /* \"#utility.yul\":7508:7582   */\n      swap2\n      pop\n        /* \"#utility.yul\":7591:7684   */\n      tag_235\n        /* \"#utility.yul\":7680:7683   */\n      dup3\n        /* \"#utility.yul\":7591:7684   */\n      tag_152\n      jump\t// in\n    tag_235:\n        /* \"#utility.yul\":7709:7711   */\n      0x20\n        /* \"#utility.yul\":7704:7707   */\n      dup3\n        /* \"#utility.yul\":7700:7712   */\n      add\n        /* \"#utility.yul\":7693:7712   */\n      swap1\n      pop\n        /* \"#utility.yul\":7352:7718   */\n      swap2\n      swap1\n      pop\n      jump\t// out\n        /* \"#utility.yul\":7724:8143   */\n    tag_69:\n        /* \"#utility.yul\":7890:7894   */\n      0x00\n        /* \"#utility.yul\":7928:7930   */\n      0x20\n        /* \"#utility.yul\":7917:7926   */\n      dup3\n        /* \"#utility.yul\":7913:7931   */\n      add\n        /* \"#utility.yul\":7905:7931   */\n      swap1\n      pop\n        /* \"#utility.yul\":7977:7986   */\n      dup2\n        /* \"#utility.yul\":7971:7975   */\n      dup2\n        /* \"#utility.yul\":7967:7987   */\n      sub\n        /* \"#utility.yul\":7963:7964   */\n      0x00\n        /* \"#utility.yul\":7952:7961   */\n      dup4\n        /* \"#utility.yul\":7948:7965   */\n      add\n        /* \"#utility.yul\":7941:7988   */\n      mstore\n        /* \"#utility.yul\":8005:8136   */\n      tag_237\n        /* \"#utility.yul\":8131:8135   */\n      dup2\n        /* \"#utility.yul\":8005:8136   */\n      tag_153\n      jump\t// in\n    tag_237:\n        /* \"#utility.yul\":7997:8136   */\n      swap1\n      pop\n        /* \"#utility.yul\":7724:8143   */\n      swap2\n      swap1\n      pop\n      jump\t// out\n        /* \"#utility.yul\":8149:8385   */\n    tag_154:\n        /* \"#utility.yul\":8289:8323   */\n      0x43757272656e74206d61726b657420686173206e6f74206265656e2061707072\n        /* \"#utility.yul\":8285:8286   */\n      0x00\n        /* \"#utility.yul\":8277:8283   */\n      dup3\n        /* \"#utility.yul\":8273:8287   */\n      add\n        /* \"#utility.yul\":8266:8324   */\n      mstore\n        /* \"#utility.yul\":8358:8377   */\n      0x6f7665642062792074686973206e667421000000000000000000000000000000\n        /* \"#utility.yul\":8353:8355   */\n      0x20\n        /* \"#utility.yul\":8345:8351   */\n      dup3\n        /* \"#utility.yul\":8341:8356   */\n      add\n        /* \"#utility.yul\":8334:8378   */\n      mstore\n        /* \"#utility.yul\":8149:8385   */\n      pop\n      jump\t// out\n        /* \"#utility.yul\":8391:8757   */\n    tag_155:\n        /* \"#utility.yul\":8533:8536   */\n      0x00\n        /* \"#utility.yul\":8554:8621   */\n      tag_240\n        /* \"#utility.yul\":8618:8620   */\n      0x31\n        /* \"#utility.yul\":8613:8616   */\n      dup4\n        /* \"#utility.yul\":8554:8621   */\n      tag_146\n      jump\t// in\n    tag_240:\n        /* \"#utility.yul\":8547:8621   */\n      swap2\n      pop\n        /* \"#utility.yul\":8630:8723   */\n      tag_241\n        /* \"#utility.yul\":8719:8722   */\n      dup3\n        /* \"#utility.yul\":8630:8723   */\n      tag_154\n      jump\t// in\n    tag_241:\n        /* \"#utility.yul\":8748:8750   */\n      0x40\n        /* \"#utility.yul\":8743:8746   */\n      dup3\n        /* \"#utility.yul\":8739:8751   */\n      add\n        /* \"#utility.yul\":8732:8751   */\n      swap1\n      pop\n        /* \"#utility.yul\":8391:8757   */\n      swap2\n      swap1\n      pop\n      jump\t// out\n        /* \"#utility.yul\":8763:9182   */\n    tag_76:\n        /* \"#utility.yul\":8929:8933   */\n      0x00\n        /* \"#utility.yul\":8967:8969   */\n      0x20\n        /* \"#utility.yul\":8956:8965   */\n      dup3\n        /* \"#utility.yul\":8952:8970   */\n      add\n        /* \"#utility.yul\":8944:8970   */\n      swap1\n      pop\n        /* \"#utility.yul\":9016:9025   */\n      dup2\n        /* \"#utility.yul\":9010:9014   */\n      dup2\n        /* \"#utility.yul\":9006:9026   */\n      sub\n        /* \"#utility.yul\":9002:9003   */\n      0x00\n        /* \"#utility.yul\":8991:9000   */\n      dup4\n        /* \"#utility.yul\":8987:9004   */\n      add\n        /* \"#utility.yul\":8980:9027   */\n      mstore\n        /* \"#utility.yul\":9044:9175   */\n      tag_243\n        /* \"#utility.yul\":9170:9174   */\n      dup2\n        /* \"#utility.yul\":9044:9175   */\n      tag_155\n      jump\t// in\n    tag_243:\n        /* \"#utility.yul\":9036:9175   */\n      swap1\n      pop\n        /* \"#utility.yul\":8763:9182   */\n      swap2\n      swap1\n      pop\n      jump\t// out\n        /* \"#utility.yul\":9188:9364   */\n    tag_156:\n        /* \"#utility.yul\":9328:9356   */\n      0x43757272656e74204e465420686173206e6f206c697374656421000000000000\n        /* \"#utility.yul\":9324:9325   */\n      0x00\n        /* \"#utility.yul\":9316:9322   */\n      dup3\n        /* \"#utility.yul\":9312:9326   */\n      add\n        /* \"#utility.yul\":9305:9357   */\n      mstore\n        /* \"#utility.yul\":9188:9364   */\n      pop\n      jump\t// out\n        /* \"#utility.yul\":9370:9736   */\n    tag_157:\n        /* \"#utility.yul\":9512:9515   */\n      0x00\n        /* \"#utility.yul\":9533:9600   */\n      tag_246\n        /* \"#utility.yul\":9597:9599   */\n      0x1a\n        /* \"#utility.yul\":9592:9595   */\n      dup4\n        /* \"#utility.yul\":9533:9600   */\n      tag_146\n      jump\t// in\n    tag_246:\n        /* \"#utility.yul\":9526:9600   */\n      swap2\n      pop\n        /* \"#utility.yul\":9609:9702   */\n      tag_247\n        /* \"#utility.yul\":9698:9701   */\n      dup3\n        /* \"#utility.yul\":9609:9702   */\n      tag_156\n      jump\t// in\n    tag_247:\n        /* \"#utility.yul\":9727:9729   */\n      0x20\n        /* \"#utility.yul\":9722:9725   */\n      dup3\n        /* \"#utility.yul\":9718:9730   */\n      add\n        /* \"#utility.yul\":9711:9730   */\n      swap1\n      pop\n        /* \"#utility.yul\":9370:9736   */\n      swap2\n      swap1\n      pop\n      jump\t// out\n        /* \"#utility.yul\":9742:10161   */\n    tag_81:\n        /* \"#utility.yul\":9908:9912   */\n      0x00\n        /* \"#utility.yul\":9946:9948   */\n      0x20\n        /* \"#utility.yul\":9935:9944   */\n      dup3\n        /* \"#utility.yul\":9931:9949   */\n      add\n        /* \"#utility.yul\":9923:9949   */\n      swap1\n      pop\n        /* \"#utility.yul\":9995:10004   */\n      dup2\n        /* \"#utility.yul\":9989:9993   */\n      dup2\n        /* \"#utility.yul\":9985:10005   */\n      sub\n        /* \"#utility.yul\":9981:9982   */\n      0x00\n        /* \"#utility.yul\":9970:9979   */\n      dup4\n        /* \"#utility.yul\":9966:9983   */\n      add\n        /* \"#utility.yul\":9959:10006   */\n      mstore\n        /* \"#utility.yul\":10023:10154   */\n      tag_249\n        /* \"#utility.yul\":10149:10153   */\n      dup2\n        /* \"#utility.yul\":10023:10154   */\n      tag_157\n      jump\t// in\n    tag_249:\n        /* \"#utility.yul\":10015:10154   */\n      swap1\n      pop\n        /* \"#utility.yul\":9742:10161   */\n      swap2\n      swap1\n      pop\n      jump\t// out\n        /* \"#utility.yul\":10167:10335   */\n    tag_158:\n        /* \"#utility.yul\":10307:10327   */\n      0x4e4654207072696365206e6f74206d6574210000000000000000000000000000\n        /* \"#utility.yul\":10303:10304   */\n      0x00\n        /* \"#utility.yul\":10295:10301   */\n      dup3\n        /* \"#utility.yul\":10291:10305   */\n      add\n        /* \"#utility.yul\":10284:10328   */\n      mstore\n        /* \"#utility.yul\":10167:10335   */\n      pop\n      jump\t// out\n        /* \"#utility.yul\":10341:10707   */\n    tag_159:\n        /* \"#utility.yul\":10483:10486   */\n      0x00\n        /* \"#utility.yul\":10504:10571   */\n      tag_252\n        /* \"#utility.yul\":10568:10570   */\n      0x12\n        /* \"#utility.yul\":10563:10566   */\n      dup4\n        /* \"#utility.yul\":10504:10571   */\n      tag_146\n      jump\t// in\n    tag_252:\n        /* \"#utility.yul\":10497:10571   */\n      swap2\n      pop\n        /* \"#utility.yul\":10580:10673   */\n      tag_253\n        /* \"#utility.yul\":10669:10672   */\n      dup3\n        /* \"#utility.yul\":10580:10673   */\n      tag_158\n      jump\t// in\n    tag_253:\n        /* \"#utility.yul\":10698:10700   */\n      0x20\n        /* \"#utility.yul\":10693:10696   */\n      dup3\n        /* \"#utility.yul\":10689:10701   */\n      add\n        /* \"#utility.yul\":10682:10701   */\n      swap1\n      pop\n        /* \"#utility.yul\":10341:10707   */\n      swap2\n      swap1\n      pop\n      jump\t// out\n        /* \"#utility.yul\":10713:11132   */\n    tag_88:\n        /* \"#utility.yul\":10879:10883   */\n      0x00\n        /* \"#utility.yul\":10917:10919   */\n      0x20\n        /* \"#utility.yul\":10906:10915   */\n      dup3\n        /* \"#utility.yul\":10902:10920   */\n      add\n        /* \"#utility.yul\":10894:10920   */\n      swap1\n      pop\n        /* \"#utility.yul\":10966:10975   */\n      dup2\n        /* \"#utility.yul\":10960:10964   */\n      dup2\n        /* \"#utility.yul\":10956:10976   */\n      sub\n        /* \"#utility.yul\":10952:10953   */\n      0x00\n        /* \"#utility.yul\":10941:10950   */\n      dup4\n        /* \"#utility.yul\":10937:10954   */\n      add\n        /* \"#utility.yul\":10930:10977   */\n      mstore\n        /* \"#utility.yul\":10994:11125   */\n      tag_255\n        /* \"#utility.yul\":11120:11124   */\n      dup2\n        /* \"#utility.yul\":10994:11125   */\n      tag_159\n      jump\t// in\n    tag_255:\n        /* \"#utility.yul\":10986:11125   */\n      swap1\n      pop\n        /* \"#utility.yul\":10713:11132   */\n      swap2\n      swap1\n      pop\n      jump\t// out\n        /* \"#utility.yul\":11138:11318   */\n    tag_160:\n        /* \"#utility.yul\":11186:11263   */\n      0x4e487b7100000000000000000000000000000000000000000000000000000000\n        /* \"#utility.yul\":11183:11184   */\n      0x00\n        /* \"#utility.yul\":11176:11264   */\n      mstore\n        /* \"#utility.yul\":11283:11287   */\n      0x11\n        /* \"#utility.yul\":11280:11281   */\n      0x04\n        /* \"#utility.yul\":11273:11288   */\n      mstore\n        /* \"#utility.yul\":11307:11311   */\n      0x24\n        /* \"#utility.yul\":11304:11305   */\n      0x00\n        /* \"#utility.yul\":11297:11312   */\n      revert\n        /* \"#utility.yul\":11324:11515   */\n    tag_90:\n        /* \"#utility.yul\":11364:11367   */\n      0x00\n        /* \"#utility.yul\":11383:11403   */\n      tag_258\n        /* \"#utility.yul\":11401:11402   */\n      dup3\n        /* \"#utility.yul\":11383:11403   */\n      tag_138\n      jump\t// in\n    tag_258:\n        /* \"#utility.yul\":11378:11403   */\n      swap2\n      pop\n        /* \"#utility.yul\":11417:11437   */\n      tag_259\n        /* \"#utility.yul\":11435:11436   */\n      dup4\n        /* \"#utility.yul\":11417:11437   */\n      tag_138\n      jump\t// in\n    tag_259:\n        /* \"#utility.yul\":11412:11437   */\n      swap3\n      pop\n        /* \"#utility.yul\":11460:11461   */\n      dup3\n        /* \"#utility.yul\":11457:11458   */\n      dup3\n        /* \"#utility.yul\":11453:11462   */\n      add\n        /* \"#utility.yul\":11446:11462   */\n      swap1\n      pop\n        /* \"#utility.yul\":11481:11484   */\n      dup1\n        /* \"#utility.yul\":11478:11479   */\n      dup3\n        /* \"#utility.yul\":11475:11485   */\n      gt\n        /* \"#utility.yul\":11472:11508   */\n      iszero\n      tag_260\n      jumpi\n        /* \"#utility.yul\":11488:11506   */\n      tag_261\n      tag_160\n      jump\t// in\n    tag_261:\n        /* \"#utility.yul\":11472:11508   */\n    tag_260:\n        /* \"#utility.yul\":11324:11515   */\n      swap3\n      swap2\n      pop\n      pop\n      jump\t// out\n        /* \"#utility.yul\":11521:11963   */\n    tag_92:\n        /* \"#utility.yul\":11670:11674   */\n      0x00\n        /* \"#utility.yul\":11708:11710   */\n      0x60\n        /* \"#utility.yul\":11697:11706   */\n      dup3\n        /* \"#utility.yul\":11693:11711   */\n      add\n        /* \"#utility.yul\":11685:11711   */\n      swap1\n      pop\n        /* \"#utility.yul\":11721:11792   */\n      tag_263\n        /* \"#utility.yul\":11789:11790   */\n      0x00\n        /* \"#utility.yul\":11778:11787   */\n      dup4\n        /* \"#utility.yul\":11774:11791   */\n      add\n        /* \"#utility.yul\":11765:11771   */\n      dup7\n        /* \"#utility.yul\":11721:11792   */\n      tag_145\n      jump\t// in\n    tag_263:\n        /* \"#utility.yul\":11802:11874   */\n      tag_264\n        /* \"#utility.yul\":11870:11872   */\n      0x20\n        /* \"#utility.yul\":11859:11868   */\n      dup4\n        /* \"#utility.yul\":11855:11873   */\n      add\n        /* \"#utility.yul\":11846:11852   */\n      dup6\n        /* \"#utility.yul\":11802:11874   */\n      tag_145\n      jump\t// in\n    tag_264:\n        /* \"#utility.yul\":11884:11956   */\n      tag_265\n        /* \"#utility.yul\":11952:11954   */\n      0x40\n        /* \"#utility.yul\":11941:11950   */\n      dup4\n        /* \"#utility.yul\":11937:11955   */\n      add\n        /* \"#utility.yul\":11928:11934   */\n      dup5\n        /* \"#utility.yul\":11884:11956   */\n      tag_139\n      jump\t// in\n    tag_265:\n        /* \"#utility.yul\":11521:11963   */\n      swap5\n      swap4\n      pop\n      pop\n      pop\n      pop\n      jump\t// out\n        /* \"#utility.yul\":11969:12140   */\n    tag_161:\n        /* \"#utility.yul\":12109:12132   */\n      0x796f752068617665206e6f2070726f6365656473210000000000000000000000\n        /* \"#utility.yul\":12105:12106   */\n      0x00\n        /* \"#utility.yul\":12097:12103   */\n      dup3\n        /* \"#utility.yul\":12093:12107   */\n      add\n        /* \"#utility.yul\":12086:12133   */\n      mstore\n        /* \"#utility.yul\":11969:12140   */\n      pop\n      jump\t// out\n        /* \"#utility.yul\":12146:12512   */\n    tag_162:\n        /* \"#utility.yul\":12288:12291   */\n      0x00\n        /* \"#utility.yul\":12309:12376   */\n      tag_268\n        /* \"#utility.yul\":12373:12375   */\n      0x15\n        /* \"#utility.yul\":12368:12371   */\n      dup4\n        /* \"#utility.yul\":12309:12376   */\n      tag_146\n      jump\t// in\n    tag_268:\n        /* \"#utility.yul\":12302:12376   */\n      swap2\n      pop\n        /* \"#utility.yul\":12385:12478   */\n      tag_269\n        /* \"#utility.yul\":12474:12477   */\n      dup3\n        /* \"#utility.yul\":12385:12478   */\n      tag_161\n      jump\t// in\n    tag_269:\n        /* \"#utility.yul\":12503:12505   */\n      0x20\n        /* \"#utility.yul\":12498:12501   */\n      dup3\n        /* \"#utility.yul\":12494:12506   */\n      add\n        /* \"#utility.yul\":12487:12506   */\n      swap1\n      pop\n        /* \"#utility.yul\":12146:12512   */\n      swap2\n      swap1\n      pop\n      jump\t// out\n        /* \"#utility.yul\":12518:12937   */\n    tag_113:\n        /* \"#utility.yul\":12684:12688   */\n      0x00\n        /* \"#utility.yul\":12722:12724   */\n      0x20\n        /* \"#utility.yul\":12711:12720   */\n      dup3\n        /* \"#utility.yul\":12707:12725   */\n      add\n        /* \"#utility.yul\":12699:12725   */\n      swap1\n      pop\n        /* \"#utility.yul\":12771:12780   */\n      dup2\n        /* \"#utility.yul\":12765:12769   */\n      dup2\n        /* \"#utility.yul\":12761:12781   */\n      sub\n        /* \"#utility.yul\":12757:12758   */\n      0x00\n        /* \"#utility.yul\":12746:12755   */\n      dup4\n        /* \"#utility.yul\":12742:12759   */\n      add\n        /* \"#utility.yul\":12735:12782   */\n      mstore\n        /* \"#utility.yul\":12799:12930   */\n      tag_271\n        /* \"#utility.yul\":12925:12929   */\n      dup2\n        /* \"#utility.yul\":12799:12930   */\n      tag_162\n      jump\t// in\n    tag_271:\n        /* \"#utility.yul\":12791:12930   */\n      swap1\n      pop\n        /* \"#utility.yul\":12518:12937   */\n      swap2\n      swap1\n      pop\n      jump\t// out\n\n    auxdata: 0xa264697066735822122079e85fa638eb411d040a74ff52795b552a2a1331317bdb2ad67437143509a04464736f6c63430008180033\n}\n",
				"bytecode": {
					"linkReferences": {},
					"object": "60a060405234801561000f575f80fd5b5060015f819055503373ffffffffffffffffffffffffffffffffffffffff1660808173ffffffffffffffffffffffffffffffffffffffff16815250506080516118476100635f395f610ebe01526118475ff3fe60806040526004361061007a575f3560e01c8063b2ddee061161004d578063b2ddee061461013a578063c6890de514610162578063dba6335f14610178578063f772adf1146101a25761007a565b806330cfeda91461007e57806388700d1c146100ba57806389bfd38f146100f65780639f37092a1461011e575b5f80fd5b348015610089575f80fd5b506100a4600480360381019061009f9190611269565b6101ca565b6040516100b191906112ac565b60405180910390f35b3480156100c5575f80fd5b506100e060048036038101906100db91906112ef565b610210565b6040516100ed9190611378565b60405180910390f35b348015610101575f80fd5b5061011c60048036038101906101179190611391565b6102d5565b005b610138600480360381019061013391906112ef565b610727565b005b348015610145575f80fd5b50610160600480360381019061015b91906112ef565b610ae4565b005b34801561016d575f80fd5b50610176610db0565b005b348015610183575f80fd5b5061018c610ebc565b60405161019991906113f0565b60405180910390f35b3480156101ad575f80fd5b506101c860048036038101906101c39190611391565b610ee0565b005b5f60025f8373ffffffffffffffffffffffffffffffffffffffff1673ffffffffffffffffffffffffffffffffffffffff1681526020019081526020015f20549050919050565b6102186111dd565b60015f8473ffffffffffffffffffffffffffffffffffffffff1673ffffffffffffffffffffffffffffffffffffffff1681526020019081526020015f205f8381526020019081526020015f206040518060400160405290815f8201548152602001600182015f9054906101000a900473ffffffffffffffffffffffffffffffffffffffff1673ffffffffffffffffffffffffffffffffffffffff1673ffffffffffffffffffffffffffffffffffffffff1681525050905092915050565b82815f60015f8473ffffffffffffffffffffffffffffffffffffffff1673ffffffffffffffffffffffffffffffffffffffff1681526020019081526020015f205f8381526020019081526020015f206040518060400160405290815f8201548152602001600182015f9054906101000a900473ffffffffffffffffffffffffffffffffffffffff1673ffffffffffffffffffffffffffffffffffffffff1673ffffffffffffffffffffffffffffffffffffffff168152505090505f815f015111156103d5576040517f08c379a00000000000000000000000000000000000000000000000000000000081526004016103cc90611463565b60405180910390fd5b8584335f8390508173ffffffffffffffffffffffffffffffffffffffff168173ffffffffffffffffffffffffffffffffffffffff16636352211e856040518263ffffffff1660e01b815260040161042c91906112ac565b602060405180830381865afa158015610447573d5f803e3d5ffd5b505050506040513d601f19601f8201168201806040525081019061046b9190611495565b73ffffffffffffffffffffffffffffffffffffffff16146104c1576040517f08c379a00000000000000000000000000000000000000000000000000000000081526004016104b890611530565b60405180910390fd5b5f8911610503576040517f08c379a00000000000000000000000000000000000000000000000000000000081526004016104fa90611598565b60405180910390fd5b5f8a90503073ffffffffffffffffffffffffffffffffffffffff168173ffffffffffffffffffffffffffffffffffffffff1663081812fc8b6040518263ffffffff1660e01b815260040161055791906112ac565b602060405180830381865afa158015610572573d5f803e3d5ffd5b505050506040513d601f19601f820116820180604052508101906105969190611495565b73ffffffffffffffffffffffffffffffffffffffff16146105ec576040517f08c379a00000000000000000000000000000000000000000000000000000000081526004016105e390611626565b60405180910390fd5b60405180604001604052808b81526020013373ffffffffffffffffffffffffffffffffffffffff1681525060015f8d73ffffffffffffffffffffffffffffffffffffffff1673ffffffffffffffffffffffffffffffffffffffff1681526020019081526020015f205f8b81526020019081526020015f205f820151815f01556020820151816001015f6101000a81548173ffffffffffffffffffffffffffffffffffffffff021916908373ffffffffffffffffffffffffffffffffffffffff160217905550905050888b73ffffffffffffffffffffffffffffffffffffffff163373ffffffffffffffffffffffffffffffffffffffff167fd547e933094f12a9159076970143ebe73234e64480317844b0dcb36117116de48d60405161071291906112ac565b60405180910390a45050505050505050505050565b81815f60015f8473ffffffffffffffffffffffffffffffffffffffff1673ffffffffffffffffffffffffffffffffffffffff1681526020019081526020015f205f8381526020019081526020015f206040518060400160405290815f8201548152602001600182015f9054906101000a900473ffffffffffffffffffffffffffffffffffffffff1673ffffffffffffffffffffffffffffffffffffffff1673ffffffffffffffffffffffffffffffffffffffff168152505090505f815f015111610826576040517f08c379a000000000000000000000000000000000000000000000000000000000815260040161081d9061168e565b60405180910390fd5b61082e611190565b5f60015f8773ffffffffffffffffffffffffffffffffffffffff1673ffffffffffffffffffffffffffffffffffffffff1681526020019081526020015f205f8681526020019081526020015f206040518060400160405290815f8201548152602001600182015f9054906101000a900473ffffffffffffffffffffffffffffffffffffffff1673ffffffffffffffffffffffffffffffffffffffff1673ffffffffffffffffffffffffffffffffffffffff1681525050905034815f01511461092b576040517f08c379a0000000000000000000000000000000000000000000000000000000008152600401610922906116f6565b60405180910390fd5b3460025f836020015173ffffffffffffffffffffffffffffffffffffffff1673ffffffffffffffffffffffffffffffffffffffff1681526020019081526020015f205f82825461097b9190611741565b9250508190555060015f8773ffffffffffffffffffffffffffffffffffffffff1673ffffffffffffffffffffffffffffffffffffffff1681526020019081526020015f205f8681526020019081526020015f205f8082015f9055600182015f6101000a81549073ffffffffffffffffffffffffffffffffffffffff021916905550508573ffffffffffffffffffffffffffffffffffffffff166342842e0e826020015133886040518463ffffffff1660e01b8152600401610a3e93929190611774565b5f604051808303815f87803b158015610a55575f80fd5b505af1158015610a67573d5f803e3d5ffd5b50505050848673ffffffffffffffffffffffffffffffffffffffff163373ffffffffffffffffffffffffffffffffffffffff167fc6d7a5e59f38ae48e0f1577ce4627ba9b270bfd4c2c0c7be609c429421bc3d68845f0151604051610acc91906112ac565b60405180910390a450610add6111d4565b5050505050565b8181335f8390508173ffffffffffffffffffffffffffffffffffffffff168173ffffffffffffffffffffffffffffffffffffffff16636352211e856040518263ffffffff1660e01b8152600401610b3b91906112ac565b602060405180830381865afa158015610b56573d5f803e3d5ffd5b505050506040513d601f19601f82011682018060405250810190610b7a9190611495565b73ffffffffffffffffffffffffffffffffffffffff1614610bd0576040517f08c379a0000000000000000000000000000000000000000000000000000000008152600401610bc790611530565b60405180910390fd5b85855f60015f8473ffffffffffffffffffffffffffffffffffffffff1673ffffffffffffffffffffffffffffffffffffffff1681526020019081526020015f205f8381526020019081526020015f206040518060400160405290815f8201548152602001600182015f9054906101000a900473ffffffffffffffffffffffffffffffffffffffff1673ffffffffffffffffffffffffffffffffffffffff1673ffffffffffffffffffffffffffffffffffffffff168152505090505f815f015111610ccf576040517f08c379a0000000000000000000000000000000000000000000000000000000008152600401610cc69061168e565b60405180910390fd5b60015f8a73ffffffffffffffffffffffffffffffffffffffff1673ffffffffffffffffffffffffffffffffffffffff1681526020019081526020015f205f8981526020019081526020015f205f8082015f9055600182015f6101000a81549073ffffffffffffffffffffffffffffffffffffffff02191690555050878973ffffffffffffffffffffffffffffffffffffffff163373ffffffffffffffffffffffffffffffffffffffff167f061e64e10e5e57615a6fe38b48c81926f6999a2f5304d3e5e6b0d3cfac4865a560405160405180910390a4505050505050505050565b5f60025f3373ffffffffffffffffffffffffffffffffffffffff1673ffffffffffffffffffffffffffffffffffffffff1681526020019081526020015f205490505f8111610e33576040517f08c379a0000000000000000000000000000000000000000000000000000000008152600401610e2a906117f3565b60405180910390fd5b5f60025f3373ffffffffffffffffffffffffffffffffffffffff1673ffffffffffffffffffffffffffffffffffffffff1681526020019081526020015f20819055503373ffffffffffffffffffffffffffffffffffffffff166108fc8290811502906040515f60405180830381858888f19350505050158015610eb8573d5f803e3d5ffd5b5050565b7f000000000000000000000000000000000000000000000000000000000000000081565b8282335f8390508173ffffffffffffffffffffffffffffffffffffffff168173ffffffffffffffffffffffffffffffffffffffff16636352211e856040518263ffffffff1660e01b8152600401610f3791906112ac565b602060405180830381865afa158015610f52573d5f803e3d5ffd5b505050506040513d601f19601f82011682018060405250810190610f769190611495565b73ffffffffffffffffffffffffffffffffffffffff1614610fcc576040517f08c379a0000000000000000000000000000000000000000000000000000000008152600401610fc390611530565b60405180910390fd5b86865f60015f8473ffffffffffffffffffffffffffffffffffffffff1673ffffffffffffffffffffffffffffffffffffffff1681526020019081526020015f205f8381526020019081526020015f206040518060400160405290815f8201548152602001600182015f9054906101000a900473ffffffffffffffffffffffffffffffffffffffff1673ffffffffffffffffffffffffffffffffffffffff1673ffffffffffffffffffffffffffffffffffffffff168152505090505f815f0151116110cb576040517f08c379a00000000000000000000000000000000000000000000000000000000081526004016110c29061168e565b60405180910390fd5b8760015f8c73ffffffffffffffffffffffffffffffffffffffff1673ffffffffffffffffffffffffffffffffffffffff1681526020019081526020015f205f8b81526020019081526020015f205f0181905550888a73ffffffffffffffffffffffffffffffffffffffff163373ffffffffffffffffffffffffffffffffffffffff167fd547e933094f12a9159076970143ebe73234e64480317844b0dcb36117116de48b60405161117c91906112ac565b60405180910390a450505050505050505050565b60025f54036111cb576040517f3ee5aeb500000000000000000000000000000000000000000000000000000000815260040160405180910390fd5b60025f81905550565b60015f81905550565b60405180604001604052805f81526020015f73ffffffffffffffffffffffffffffffffffffffff1681525090565b5f80fd5b5f73ffffffffffffffffffffffffffffffffffffffff82169050919050565b5f6112388261120f565b9050919050565b6112488161122e565b8114611252575f80fd5b50565b5f813590506112638161123f565b92915050565b5f6020828403121561127e5761127d61120b565b5b5f61128b84828501611255565b91505092915050565b5f819050919050565b6112a681611294565b82525050565b5f6020820190506112bf5f83018461129d565b92915050565b6112ce81611294565b81146112d8575f80fd5b50565b5f813590506112e9816112c5565b92915050565b5f80604083850312156113055761130461120b565b5b5f61131285828601611255565b9250506020611323858286016112db565b9150509250929050565b61133681611294565b82525050565b6113458161122e565b82525050565b604082015f82015161135f5f85018261132d565b506020820151611372602085018261133c565b50505050565b5f60408201905061138b5f83018461134b565b92915050565b5f805f606084860312156113a8576113a761120b565b5b5f6113b586828701611255565b93505060206113c6868287016112db565b92505060406113d7868287016112db565b9150509250925092565b6113ea8161122e565b82525050565b5f6020820190506114035f8301846113e1565b92915050565b5f82825260208201905092915050565b7f43757272656e74204e465420686173206c6973746564210000000000000000005f82015250565b5f61144d601783611409565b915061145882611419565b602082019050919050565b5f6020820190508181035f83015261147a81611441565b9050919050565b5f8151905061148f8161123f565b92915050565b5f602082840312156114aa576114a961120b565b5b5f6114b784828501611481565b91505092915050565b7f54686973204e4654206973206e6f742062656c6f6e6720746f2063757272656e5f8201527f7420616464726573732100000000000000000000000000000000000000000000602082015250565b5f61151a602a83611409565b9150611525826114c0565b604082019050919050565b5f6020820190508181035f8301526115478161150e565b9050919050565b7f4e6674207072696365206d757374206e656564206f766572207a65726f2100005f82015250565b5f611582601e83611409565b915061158d8261154e565b602082019050919050565b5f6020820190508181035f8301526115af81611576565b9050919050565b7f43757272656e74206d61726b657420686173206e6f74206265656e20617070725f8201527f6f7665642062792074686973206e667421000000000000000000000000000000602082015250565b5f611610603183611409565b915061161b826115b6565b604082019050919050565b5f6020820190508181035f83015261163d81611604565b9050919050565b7f43757272656e74204e465420686173206e6f206c6973746564210000000000005f82015250565b5f611678601a83611409565b915061168382611644565b602082019050919050565b5f6020820190508181035f8301526116a58161166c565b9050919050565b7f4e4654207072696365206e6f74206d65742100000000000000000000000000005f82015250565b5f6116e0601283611409565b91506116eb826116ac565b602082019050919050565b5f6020820190508181035f83015261170d816116d4565b9050919050565b7f4e487b71000000000000000000000000000000000000000000000000000000005f52601160045260245ffd5b5f61174b82611294565b915061175683611294565b925082820190508082111561176e5761176d611714565b5b92915050565b5f6060820190506117875f8301866113e1565b61179460208301856113e1565b6117a1604083018461129d565b949350505050565b7f796f752068617665206e6f2070726f63656564732100000000000000000000005f82015250565b5f6117dd601583611409565b91506117e8826117a9565b602082019050919050565b5f6020820190508181035f83015261180a816117d1565b905091905056fea264697066735822122079e85fa638eb411d040a74ff52795b552a2a1331317bdb2ad67437143509a04464736f6c63430008180033",
					"opcodes": "PUSH1 0xA0 PUSH1 0x40 MSTORE CALLVALUE DUP1 ISZERO PUSH2 0xF JUMPI PUSH0 DUP1 REVERT JUMPDEST POP PUSH1 0x1 PUSH0 DUP2 SWAP1 SSTORE POP CALLER PUSH20 0xFFFFFFFFFFFFFFFFFFFFFFFFFFFFFFFFFFFFFFFF AND PUSH1 0x80 DUP2 PUSH20 0xFFFFFFFFFFFFFFFFFFFFFFFFFFFFFFFFFFFFFFFF AND DUP2 MSTORE POP POP PUSH1 0x80 MLOAD PUSH2 0x1847 PUSH2 0x63 PUSH0 CODECOPY PUSH0 PUSH2 0xEBE ADD MSTORE PUSH2 0x1847 PUSH0 RETURN INVALID PUSH1 0x80 PUSH1 0x40 MSTORE PUSH1 0x4 CALLDATASIZE LT PUSH2 0x7A JUMPI PUSH0 CALLDATALOAD PUSH1 0xE0 SHR DUP1 PUSH4 0xB2DDEE06 GT PUSH2 0x4D JUMPI DUP1 PUSH4 0xB2DDEE06 EQ PUSH2 0x13A JUMPI DUP1 PUSH4 0xC6890DE5 EQ PUSH2 0x162 JUMPI DUP1 PUSH4 0xDBA6335F EQ PUSH2 0x178 JUMPI DUP1 PUSH4 0xF772ADF1 EQ PUSH2 0x1A2 JUMPI PUSH2 0x7A JUMP JUMPDEST DUP1 PUSH4 0x30CFEDA9 EQ PUSH2 0x7E JUMPI DUP1 PUSH4 0x88700D1C EQ PUSH2 0xBA JUMPI DUP1 PUSH4 0x89BFD38F EQ PUSH2 0xF6 JUMPI DUP1 PUSH4 0x9F37092A EQ PUSH2 0x11E JUMPI JUMPDEST PUSH0 DUP1 REVERT JUMPDEST CALLVALUE DUP1 ISZERO PUSH2 0x89 JUMPI PUSH0 DUP1 REVERT JUMPDEST POP PUSH2 0xA4 PUSH1 0x4 DUP1 CALLDATASIZE SUB DUP2 ADD SWAP1 PUSH2 0x9F SWAP2 SWAP1 PUSH2 0x1269 JUMP JUMPDEST PUSH2 0x1CA JUMP JUMPDEST PUSH1 0x40 MLOAD PUSH2 0xB1 SWAP2 SWAP1 PUSH2 0x12AC JUMP JUMPDEST PUSH1 0x40 MLOAD DUP1 SWAP2 SUB SWAP1 RETURN JUMPDEST CALLVALUE DUP1 ISZERO PUSH2 0xC5 JUMPI PUSH0 DUP1 REVERT JUMPDEST POP PUSH2 0xE0 PUSH1 0x4 DUP1 CALLDATASIZE SUB DUP2 ADD SWAP1 PUSH2 0xDB SWAP2 SWAP1 PUSH2 0x12EF JUMP JUMPDEST PUSH2 0x210 JUMP JUMPDEST PUSH1 0x40 MLOAD PUSH2 0xED SWAP2 SWAP1 PUSH2 0x1378 JUMP JUMPDEST PUSH1 0x40 MLOAD DUP1 SWAP2 SUB SWAP1 RETURN JUMPDEST CALLVALUE DUP1 ISZERO PUSH2 0x101 JUMPI PUSH0 DUP1 REVERT JUMPDEST POP PUSH2 0x11C PUSH1 0x4 DUP1 CALLDATASIZE SUB DUP2 ADD SWAP1 PUSH2 0x117 SWAP2 SWAP1 PUSH2 0x1391 JUMP JUMPDEST PUSH2 0x2D5 JUMP JUMPDEST STOP JUMPDEST PUSH2 0x138 PUSH1 0x4 DUP1 CALLDATASIZE SUB DUP2 ADD SWAP1 PUSH2 0x133 SWAP2 SWAP1 PUSH2 0x12EF JUMP JUMPDEST PUSH2 0x727 JUMP JUMPDEST STOP JUMPDEST CALLVALUE DUP1 ISZERO PUSH2 0x145 JUMPI PUSH0 DUP1 REVERT JUMPDEST POP PUSH2 0x160 PUSH1 0x4 DUP1 CALLDATASIZE SUB DUP2 ADD SWAP1 PUSH2 0x15B SWAP2 SWAP1 PUSH2 0x12EF JUMP JUMPDEST PUSH2 0xAE4 JUMP JUMPDEST STOP JUMPDEST CALLVALUE DUP1 ISZERO PUSH2 0x16D JUMPI PUSH0 DUP1 REVERT JUMPDEST POP PUSH2 0x176 PUSH2 0xDB0 JUMP JUMPDEST STOP JUMPDEST CALLVALUE DUP1 ISZERO PUSH2 0x183 JUMPI PUSH0 DUP1 REVERT JUMPDEST POP PUSH2 0x18C PUSH2 0xEBC JUMP JUMPDEST PUSH1 0x40 MLOAD PUSH2 0x199 SWAP2 SWAP1 PUSH2 0x13F0 JUMP JUMPDEST PUSH1 0x40 MLOAD DUP1 SWAP2 SUB SWAP1 RETURN JUMPDEST CALLVALUE DUP1 ISZERO PUSH2 0x1AD JUMPI PUSH0 DUP1 REVERT JUMPDEST POP PUSH2 0x1C8 PUSH1 0x4 DUP1 CALLDATASIZE SUB DUP2 ADD SWAP1 PUSH2 0x1C3 SWAP2 SWAP1 PUSH2 0x1391 JUMP JUMPDEST PUSH2 0xEE0 JUMP JUMPDEST STOP JUMPDEST PUSH0 PUSH1 0x2 PUSH0 DUP4 PUSH20 0xFFFFFFFFFFFFFFFFFFFFFFFFFFFFFFFFFFFFFFFF AND PUSH20 0xFFFFFFFFFFFFFFFFFFFFFFFFFFFFFFFFFFFFFFFF AND DUP2 MSTORE PUSH1 0x20 ADD SWAP1 DUP2 MSTORE PUSH1 0x20 ADD PUSH0 KECCAK256 SLOAD SWAP1 POP SWAP2 SWAP1 POP JUMP JUMPDEST PUSH2 0x218 PUSH2 0x11DD JUMP JUMPDEST PUSH1 0x1 PUSH0 DUP5 PUSH20 0xFFFFFFFFFFFFFFFFFFFFFFFFFFFFFFFFFFFFFFFF AND PUSH20 0xFFFFFFFFFFFFFFFFFFFFFFFFFFFFFFFFFFFFFFFF AND DUP2 MSTORE PUSH1 0x20 ADD SWAP1 DUP2 MSTORE PUSH1 0x20 ADD PUSH0 KECCAK256 PUSH0 DUP4 DUP2 MSTORE PUSH1 0x20 ADD SWAP1 DUP2 MSTORE PUSH1 0x20 ADD PUSH0 KECCAK256 PUSH1 0x40 MLOAD DUP1 PUSH1 0x40 ADD PUSH1 0x40 MSTORE SWAP1 DUP2 PUSH0 DUP3 ADD SLOAD DUP2 MSTORE PUSH1 0x20 ADD PUSH1 0x1 DUP3 ADD PUSH0 SWAP1 SLOAD SWAP1 PUSH2 0x100 EXP SWAP1 DIV PUSH20 0xFFFFFFFFFFFFFFFFFFFFFFFFFFFFFFFFFFFFFFFF AND PUSH20 0xFFFFFFFFFFFFFFFFFFFFFFFFFFFFFFFFFFFFFFFF AND PUSH20 0xFFFFFFFFFFFFFFFFFFFFFFFFFFFFFFFFFFFFFFFF AND DUP2 MSTORE POP POP SWAP1 POP SWAP3 SWAP2 POP POP JUMP JUMPDEST DUP3 DUP2 PUSH0 PUSH1 0x1 PUSH0 DUP5 PUSH20 0xFFFFFFFFFFFFFFFFFFFFFFFFFFFFFFFFFFFFFFFF AND PUSH20 0xFFFFFFFFFFFFFFFFFFFFFFFFFFFFFFFFFFFFFFFF AND DUP2 MSTORE PUSH1 0x20 ADD SWAP1 DUP2 MSTORE PUSH1 0x20 ADD PUSH0 KECCAK256 PUSH0 DUP4 DUP2 MSTORE PUSH1 0x20 ADD SWAP1 DUP2 MSTORE PUSH1 0x20 ADD PUSH0 KECCAK256 PUSH1 0x40 MLOAD DUP1 PUSH1 0x40 ADD PUSH1 0x40 MSTORE SWAP1 DUP2 PUSH0 DUP3 ADD SLOAD DUP2 MSTORE PUSH1 0x20 ADD PUSH1 0x1 DUP3 ADD PUSH0 SWAP1 SLOAD SWAP1 PUSH2 0x100 EXP SWAP1 DIV PUSH20 0xFFFFFFFFFFFFFFFFFFFFFFFFFFFFFFFFFFFFFFFF AND PUSH20 0xFFFFFFFFFFFFFFFFFFFFFFFFFFFFFFFFFFFFFFFF AND PUSH20 0xFFFFFFFFFFFFFFFFFFFFFFFFFFFFFFFFFFFFFFFF AND DUP2 MSTORE POP POP SWAP1 POP PUSH0 DUP2 PUSH0 ADD MLOAD GT ISZERO PUSH2 0x3D5 JUMPI PUSH1 0x40 MLOAD PUSH32 0x8C379A000000000000000000000000000000000000000000000000000000000 DUP2 MSTORE PUSH1 0x4 ADD PUSH2 0x3CC SWAP1 PUSH2 0x1463 JUMP JUMPDEST PUSH1 0x40 MLOAD DUP1 SWAP2 SUB SWAP1 REVERT JUMPDEST DUP6 DUP5 CALLER PUSH0 DUP4 SWAP1 POP DUP2 PUSH20 0xFFFFFFFFFFFFFFFFFFFFFFFFFFFFFFFFFFFFFFFF AND DUP2 PUSH20 0xFFFFFFFFFFFFFFFFFFFFFFFFFFFFFFFFFFFFFFFF AND PUSH4 0x6352211E DUP6 PUSH1 0x40 MLOAD DUP3 PUSH4 0xFFFFFFFF AND PUSH1 0xE0 SHL DUP2 MSTORE PUSH1 0x4 ADD PUSH2 0x42C SWAP2 SWAP1 PUSH2 0x12AC JUMP JUMPDEST PUSH1 0x20 PUSH1 0x40 MLOAD DUP1 DUP4 SUB DUP2 DUP7 GAS STATICCALL ISZERO DUP1 ISZERO PUSH2 0x447 JUMPI RETURNDATASIZE PUSH0 DUP1 RETURNDATACOPY RETURNDATASIZE PUSH0 REVERT JUMPDEST POP POP POP POP PUSH1 0x40 MLOAD RETURNDATASIZE PUSH1 0x1F NOT PUSH1 0x1F DUP3 ADD AND DUP3 ADD DUP1 PUSH1 0x40 MSTORE POP DUP2 ADD SWAP1 PUSH2 0x46B SWAP2 SWAP1 PUSH2 0x1495 JUMP JUMPDEST PUSH20 0xFFFFFFFFFFFFFFFFFFFFFFFFFFFFFFFFFFFFFFFF AND EQ PUSH2 0x4C1 JUMPI PUSH1 0x40 MLOAD PUSH32 0x8C379A000000000000000000000000000000000000000000000000000000000 DUP2 MSTORE PUSH1 0x4 ADD PUSH2 0x4B8 SWAP1 PUSH2 0x1530 JUMP JUMPDEST PUSH1 0x40 MLOAD DUP1 SWAP2 SUB SWAP1 REVERT JUMPDEST PUSH0 DUP10 GT PUSH2 0x503 JUMPI PUSH1 0x40 MLOAD PUSH32 0x8C379A000000000000000000000000000000000000000000000000000000000 DUP2 MSTORE PUSH1 0x4 ADD PUSH2 0x4FA SWAP1 PUSH2 0x1598 JUMP JUMPDEST PUSH1 0x40 MLOAD DUP1 SWAP2 SUB SWAP1 REVERT JUMPDEST PUSH0 DUP11 SWAP1 POP ADDRESS PUSH20 0xFFFFFFFFFFFFFFFFFFFFFFFFFFFFFFFFFFFFFFFF AND DUP2 PUSH20 0xFFFFFFFFFFFFFFFFFFFFFFFFFFFFFFFFFFFFFFFF AND PUSH4 0x81812FC DUP12 PUSH1 0x40 MLOAD DUP3 PUSH4 0xFFFFFFFF AND PUSH1 0xE0 SHL DUP2 MSTORE PUSH1 0x4 ADD PUSH2 0x557 SWAP2 SWAP1 PUSH2 0x12AC JUMP JUMPDEST PUSH1 0x20 PUSH1 0x40 MLOAD DUP1 DUP4 SUB DUP2 DUP7 GAS STATICCALL ISZERO DUP1 ISZERO PUSH2 0x572 JUMPI RETURNDATASIZE PUSH0 DUP1 RETURNDATACOPY RETURNDATASIZE PUSH0 REVERT JUMPDEST POP POP POP POP PUSH1 0x40 MLOAD RETURNDATASIZE PUSH1 0x1F NOT PUSH1 0x1F DUP3 ADD AND DUP3 ADD DUP1 PUSH1 0x40 MSTORE POP DUP2 ADD SWAP1 PUSH2 0x596 SWAP2 SWAP1 PUSH2 0x1495 JUMP JUMPDEST PUSH20 0xFFFFFFFFFFFFFFFFFFFFFFFFFFFFFFFFFFFFFFFF AND EQ PUSH2 0x5EC JUMPI PUSH1 0x40 MLOAD PUSH32 0x8C379A000000000000000000000000000000000000000000000000000000000 DUP2 MSTORE PUSH1 0x4 ADD PUSH2 0x5E3 SWAP1 PUSH2 0x1626 JUMP JUMPDEST PUSH1 0x40 MLOAD DUP1 SWAP2 SUB SWAP1 REVERT JUMPDEST PUSH1 0x40 MLOAD DUP1 PUSH1 0x40 ADD PUSH1 0x40 MSTORE DUP1 DUP12 DUP2 MSTORE PUSH1 0x20 ADD CALLER PUSH20 0xFFFFFFFFFFFFFFFFFFFFFFFFFFFFFFFFFFFFFFFF AND DUP2 MSTORE POP PUSH1 0x1 PUSH0 DUP14 PUSH20 0xFFFFFFFFFFFFFFFFFFFFFFFFFFFFFFFFFFFFFFFF AND PUSH20 0xFFFFFFFFFFFFFFFFFFFFFFFFFFFFFFFFFFFFFFFF AND DUP2 MSTORE PUSH1 0x20 ADD SWAP1 DUP2 MSTORE PUSH1 0x20 ADD PUSH0 KECCAK256 PUSH0 DUP12 DUP2 MSTORE PUSH1 0x20 ADD SWAP1 DUP2 MSTORE PUSH1 0x20 ADD PUSH0 KECCAK256 PUSH0 DUP3 ADD MLOAD DUP2 PUSH0 ADD SSTORE PUSH1 0x20 DUP3 ADD MLOAD DUP2 PUSH1 0x1 ADD PUSH0 PUSH2 0x100 EXP DUP2 SLOAD DUP2 PUSH20 0xFFFFFFFFFFFFFFFFFFFFFFFFFFFFFFFFFFFFFFFF MUL NOT AND SWAP1 DUP4 PUSH20 0xFFFFFFFFFFFFFFFFFFFFFFFFFFFFFFFFFFFFFFFF AND MUL OR SWAP1 SSTORE POP SWAP1 POP POP DUP9 DUP12 PUSH20 0xFFFFFFFFFFFFFFFFFFFFFFFFFFFFFFFFFFFFFFFF AND CALLER PUSH20 0xFFFFFFFFFFFFFFFFFFFFFFFFFFFFFFFFFFFFFFFF AND PUSH32 0xD547E933094F12A9159076970143EBE73234E64480317844B0DCB36117116DE4 DUP14 PUSH1 0x40 MLOAD PUSH2 0x712 SWAP2 SWAP1 PUSH2 0x12AC JUMP JUMPDEST PUSH1 0x40 MLOAD DUP1 SWAP2 SUB SWAP1 LOG4 POP POP POP POP POP POP POP POP POP POP POP JUMP JUMPDEST DUP2 DUP2 PUSH0 PUSH1 0x1 PUSH0 DUP5 PUSH20 0xFFFFFFFFFFFFFFFFFFFFFFFFFFFFFFFFFFFFFFFF AND PUSH20 0xFFFFFFFFFFFFFFFFFFFFFFFFFFFFFFFFFFFFFFFF AND DUP2 MSTORE PUSH1 0x20 ADD SWAP1 DUP2 MSTORE PUSH1 0x20 ADD PUSH0 KECCAK256 PUSH0 DUP4 DUP2 MSTORE PUSH1 0x20 ADD SWAP1 DUP2 MSTORE PUSH1 0x20 ADD PUSH0 KECCAK256 PUSH1 0x40 MLOAD DUP1 PUSH1 0x40 ADD PUSH1 0x40 MSTORE SWAP1 DUP2 PUSH0 DUP3 ADD SLOAD DUP2 MSTORE PUSH1 0x20 ADD PUSH1 0x1 DUP3 ADD PUSH0 SWAP1 SLOAD SWAP1 PUSH2 0x100 EXP SWAP1 DIV PUSH20 0xFFFFFFFFFFFFFFFFFFFFFFFFFFFFFFFFFFFFFFFF AND PUSH20 0xFFFFFFFFFFFFFFFFFFFFFFFFFFFFFFFFFFFFFFFF AND PUSH20 0xFFFFFFFFFFFFFFFFFFFFFFFFFFFFFFFFFFFFFFFF AND DUP2 MSTORE POP POP SWAP1 POP PUSH0 DUP2 PUSH0 ADD MLOAD GT PUSH2 0x826 JUMPI PUSH1 0x40 MLOAD PUSH32 0x8C379A000000000000000000000000000000000000000000000000000000000 DUP2 MSTORE PUSH1 0x4 ADD PUSH2 0x81D SWAP1 PUSH2 0x168E JUMP JUMPDEST PUSH1 0x40 MLOAD DUP1 SWAP2 SUB SWAP1 REVERT JUMPDEST PUSH2 0x82E PUSH2 0x1190 JUMP JUMPDEST PUSH0 PUSH1 0x1 PUSH0 DUP8 PUSH20 0xFFFFFFFFFFFFFFFFFFFFFFFFFFFFFFFFFFFFFFFF AND PUSH20 0xFFFFFFFFFFFFFFFFFFFFFFFFFFFFFFFFFFFFFFFF AND DUP2 MSTORE PUSH1 0x20 ADD SWAP1 DUP2 MSTORE PUSH1 0x20 ADD PUSH0 KECCAK256 PUSH0 DUP7 DUP2 MSTORE PUSH1 0x20 ADD SWAP1 DUP2 MSTORE PUSH1 0x20 ADD PUSH0 KECCAK256 PUSH1 0x40 MLOAD DUP1 PUSH1 0x40 ADD PUSH1 0x40 MSTORE SWAP1 DUP2 PUSH0 DUP3 ADD SLOAD DUP2 MSTORE PUSH1 0x20 ADD PUSH1 0x1 DUP3 ADD PUSH0 SWAP1 SLOAD SWAP1 PUSH2 0x100 EXP SWAP1 DIV PUSH20 0xFFFFFFFFFFFFFFFFFFFFFFFFFFFFFFFFFFFFFFFF AND PUSH20 0xFFFFFFFFFFFFFFFFFFFFFFFFFFFFFFFFFFFFFFFF AND PUSH20 0xFFFFFFFFFFFFFFFFFFFFFFFFFFFFFFFFFFFFFFFF AND DUP2 MSTORE POP POP SWAP1 POP CALLVALUE DUP2 PUSH0 ADD MLOAD EQ PUSH2 0x92B JUMPI PUSH1 0x40 MLOAD PUSH32 0x8C379A000000000000000000000000000000000000000000000000000000000 DUP2 MSTORE PUSH1 0x4 ADD PUSH2 0x922 SWAP1 PUSH2 0x16F6 JUMP JUMPDEST PUSH1 0x40 MLOAD DUP1 SWAP2 SUB SWAP1 REVERT JUMPDEST CALLVALUE PUSH1 0x2 PUSH0 DUP4 PUSH1 0x20 ADD MLOAD PUSH20 0xFFFFFFFFFFFFFFFFFFFFFFFFFFFFFFFFFFFFFFFF AND PUSH20 0xFFFFFFFFFFFFFFFFFFFFFFFFFFFFFFFFFFFFFFFF AND DUP2 MSTORE PUSH1 0x20 ADD SWAP1 DUP2 MSTORE PUSH1 0x20 ADD PUSH0 KECCAK256 PUSH0 DUP3 DUP3 SLOAD PUSH2 0x97B SWAP2 SWAP1 PUSH2 0x1741 JUMP JUMPDEST SWAP3 POP POP DUP2 SWAP1 SSTORE POP PUSH1 0x1 PUSH0 DUP8 PUSH20 0xFFFFFFFFFFFFFFFFFFFFFFFFFFFFFFFFFFFFFFFF AND PUSH20 0xFFFFFFFFFFFFFFFFFFFFFFFFFFFFFFFFFFFFFFFF AND DUP2 MSTORE PUSH1 0x20 ADD SWAP1 DUP2 MSTORE PUSH1 0x20 ADD PUSH0 KECCAK256 PUSH0 DUP7 DUP2 MSTORE PUSH1 0x20 ADD SWAP1 DUP2 MSTORE PUSH1 0x20 ADD PUSH0 KECCAK256 PUSH0 DUP1 DUP3 ADD PUSH0 SWAP1 SSTORE PUSH1 0x1 DUP3 ADD PUSH0 PUSH2 0x100 EXP DUP2 SLOAD SWAP1 PUSH20 0xFFFFFFFFFFFFFFFFFFFFFFFFFFFFFFFFFFFFFFFF MUL NOT AND SWAP1 SSTORE POP POP DUP6 PUSH20 0xFFFFFFFFFFFFFFFFFFFFFFFFFFFFFFFFFFFFFFFF AND PUSH4 0x42842E0E DUP3 PUSH1 0x20 ADD MLOAD CALLER DUP9 PUSH1 0x40 MLOAD DUP5 PUSH4 0xFFFFFFFF AND PUSH1 0xE0 SHL DUP2 MSTORE PUSH1 0x4 ADD PUSH2 0xA3E SWAP4 SWAP3 SWAP2 SWAP1 PUSH2 0x1774 JUMP JUMPDEST PUSH0 PUSH1 0x40 MLOAD DUP1 DUP4 SUB DUP2 PUSH0 DUP8 DUP1 EXTCODESIZE ISZERO DUP1 ISZERO PUSH2 0xA55 JUMPI PUSH0 DUP1 REVERT JUMPDEST POP GAS CALL ISZERO DUP1 ISZERO PUSH2 0xA67 JUMPI RETURNDATASIZE PUSH0 DUP1 RETURNDATACOPY RETURNDATASIZE PUSH0 REVERT JUMPDEST POP POP POP POP DUP5 DUP7 PUSH20 0xFFFFFFFFFFFFFFFFFFFFFFFFFFFFFFFFFFFFFFFF AND CALLER PUSH20 0xFFFFFFFFFFFFFFFFFFFFFFFFFFFFFFFFFFFFFFFF AND PUSH32 0xC6D7A5E59F38AE48E0F1577CE4627BA9B270BFD4C2C0C7BE609C429421BC3D68 DUP5 PUSH0 ADD MLOAD PUSH1 0x40 MLOAD PUSH2 0xACC SWAP2 SWAP1 PUSH2 0x12AC JUMP JUMPDEST PUSH1 0x40 MLOAD DUP1 SWAP2 SUB SWAP1 LOG4 POP PUSH2 0xADD PUSH2 0x11D4 JUMP JUMPDEST POP POP POP POP POP JUMP JUMPDEST DUP2 DUP2 CALLER PUSH0 DUP4 SWAP1 POP DUP2 PUSH20 0xFFFFFFFFFFFFFFFFFFFFFFFFFFFFFFFFFFFFFFFF AND DUP2 PUSH20 0xFFFFFFFFFFFFFFFFFFFFFFFFFFFFFFFFFFFFFFFF AND PUSH4 0x6352211E DUP6 PUSH1 0x40 MLOAD DUP3 PUSH4 0xFFFFFFFF AND PUSH1 0xE0 SHL DUP2 MSTORE PUSH1 0x4 ADD PUSH2 0xB3B SWAP2 SWAP1 PUSH2 0x12AC JUMP JUMPDEST PUSH1 0x20 PUSH1 0x40 MLOAD DUP1 DUP4 SUB DUP2 DUP7 GAS STATICCALL ISZERO DUP1 ISZERO PUSH2 0xB56 JUMPI RETURNDATASIZE PUSH0 DUP1 RETURNDATACOPY RETURNDATASIZE PUSH0 REVERT JUMPDEST POP POP POP POP PUSH1 0x40 MLOAD RETURNDATASIZE PUSH1 0x1F NOT PUSH1 0x1F DUP3 ADD AND DUP3 ADD DUP1 PUSH1 0x40 MSTORE POP DUP2 ADD SWAP1 PUSH2 0xB7A SWAP2 SWAP1 PUSH2 0x1495 JUMP JUMPDEST PUSH20 0xFFFFFFFFFFFFFFFFFFFFFFFFFFFFFFFFFFFFFFFF AND EQ PUSH2 0xBD0 JUMPI PUSH1 0x40 MLOAD PUSH32 0x8C379A000000000000000000000000000000000000000000000000000000000 DUP2 MSTORE PUSH1 0x4 ADD PUSH2 0xBC7 SWAP1 PUSH2 0x1530 JUMP JUMPDEST PUSH1 0x40 MLOAD DUP1 SWAP2 SUB SWAP1 REVERT JUMPDEST DUP6 DUP6 PUSH0 PUSH1 0x1 PUSH0 DUP5 PUSH20 0xFFFFFFFFFFFFFFFFFFFFFFFFFFFFFFFFFFFFFFFF AND PUSH20 0xFFFFFFFFFFFFFFFFFFFFFFFFFFFFFFFFFFFFFFFF AND DUP2 MSTORE PUSH1 0x20 ADD SWAP1 DUP2 MSTORE PUSH1 0x20 ADD PUSH0 KECCAK256 PUSH0 DUP4 DUP2 MSTORE PUSH1 0x20 ADD SWAP1 DUP2 MSTORE PUSH1 0x20 ADD PUSH0 KECCAK256 PUSH1 0x40 MLOAD DUP1 PUSH1 0x40 ADD PUSH1 0x40 MSTORE SWAP1 DUP2 PUSH0 DUP3 ADD SLOAD DUP2 MSTORE PUSH1 0x20 ADD PUSH1 0x1 DUP3 ADD PUSH0 SWAP1 SLOAD SWAP1 PUSH2 0x100 EXP SWAP1 DIV PUSH20 0xFFFFFFFFFFFFFFFFFFFFFFFFFFFFFFFFFFFFFFFF AND PUSH20 0xFFFFFFFFFFFFFFFFFFFFFFFFFFFFFFFFFFFFFFFF AND PUSH20 0xFFFFFFFFFFFFFFFFFFFFFFFFFFFFFFFFFFFFFFFF AND DUP2 MSTORE POP POP SWAP1 POP PUSH0 DUP2 PUSH0 ADD MLOAD GT PUSH2 0xCCF JUMPI PUSH1 0x40 MLOAD PUSH32 0x8C379A000000000000000000000000000000000000000000000000000000000 DUP2 MSTORE PUSH1 0x4 ADD PUSH2 0xCC6 SWAP1 PUSH2 0x168E JUMP JUMPDEST PUSH1 0x40 MLOAD DUP1 SWAP2 SUB SWAP1 REVERT JUMPDEST PUSH1 0x1 PUSH0 DUP11 PUSH20 0xFFFFFFFFFFFFFFFFFFFFFFFFFFFFFFFFFFFFFFFF AND PUSH20 0xFFFFFFFFFFFFFFFFFFFFFFFFFFFFFFFFFFFFFFFF AND DUP2 MSTORE PUSH1 0x20 ADD SWAP1 DUP2 MSTORE PUSH1 0x20 ADD PUSH0 KECCAK256 PUSH0 DUP10 DUP2 MSTORE PUSH1 0x20 ADD SWAP1 DUP2 MSTORE PUSH1 0x20 ADD PUSH0 KECCAK256 PUSH0 DUP1 DUP3 ADD PUSH0 SWAP1 SSTORE PUSH1 0x1 DUP3 ADD PUSH0 PUSH2 0x100 EXP DUP2 SLOAD SWAP1 PUSH20 0xFFFFFFFFFFFFFFFFFFFFFFFFFFFFFFFFFFFFFFFF MUL NOT AND SWAP1 SSTORE POP POP DUP8 DUP10 PUSH20 0xFFFFFFFFFFFFFFFFFFFFFFFFFFFFFFFFFFFFFFFF AND CALLER PUSH20 0xFFFFFFFFFFFFFFFFFFFFFFFFFFFFFFFFFFFFFFFF AND PUSH32 0x61E64E10E5E57615A6FE38B48C81926F6999A2F5304D3E5E6B0D3CFAC4865A5 PUSH1 0x40 MLOAD PUSH1 0x40 MLOAD DUP1 SWAP2 SUB SWAP1 LOG4 POP POP POP POP POP POP POP POP POP JUMP JUMPDEST PUSH0 PUSH1 0x2 PUSH0 CALLER PUSH20 0xFFFFFFFFFFFFFFFFFFFFFFFFFFFFFFFFFFFFFFFF AND PUSH20 0xFFFFFFFFFFFFFFFFFFFFFFFFFFFFFFFFFFFFFFFF AND DUP2 MSTORE PUSH1 0x20 ADD SWAP1 DUP2 MSTORE PUSH1 0x20 ADD PUSH0 KECCAK256 SLOAD SWAP1 POP PUSH0 DUP2 GT PUSH2 0xE33 JUMPI PUSH1 0x40 MLOAD PUSH32 0x8C379A000000000000000000000000000000000000000000000000000000000 DUP2 MSTORE PUSH1 0x4 ADD PUSH2 0xE2A SWAP1 PUSH2 0x17F3 JUMP JUMPDEST PUSH1 0x40 MLOAD DUP1 SWAP2 SUB SWAP1 REVERT JUMPDEST PUSH0 PUSH1 0x2 PUSH0 CALLER PUSH20 0xFFFFFFFFFFFFFFFFFFFFFFFFFFFFFFFFFFFFFFFF AND PUSH20 0xFFFFFFFFFFFFFFFFFFFFFFFFFFFFFFFFFFFFFFFF AND DUP2 MSTORE PUSH1 0x20 ADD SWAP1 DUP2 MSTORE PUSH1 0x20 ADD PUSH0 KECCAK256 DUP2 SWAP1 SSTORE POP CALLER PUSH20 0xFFFFFFFFFFFFFFFFFFFFFFFFFFFFFFFFFFFFFFFF AND PUSH2 0x8FC DUP3 SWAP1 DUP2 ISZERO MUL SWAP1 PUSH1 0x40 MLOAD PUSH0 PUSH1 0x40 MLOAD DUP1 DUP4 SUB DUP2 DUP6 DUP9 DUP9 CALL SWAP4 POP POP POP POP ISZERO DUP1 ISZERO PUSH2 0xEB8 JUMPI RETURNDATASIZE PUSH0 DUP1 RETURNDATACOPY RETURNDATASIZE PUSH0 REVERT JUMPDEST POP POP JUMP JUMPDEST PUSH32 0x0 DUP2 JUMP JUMPDEST DUP3 DUP3 CALLER PUSH0 DUP4 SWAP1 POP DUP2 PUSH20 0xFFFFFFFFFFFFFFFFFFFFFFFFFFFFFFFFFFFFFFFF AND DUP2 PUSH20 0xFFFFFFFFFFFFFFFFFFFFFFFFFFFFFFFFFFFFFFFF AND PUSH4 0x6352211E DUP6 PUSH1 0x40 MLOAD DUP3 PUSH4 0xFFFFFFFF AND PUSH1 0xE0 SHL DUP2 MSTORE PUSH1 0x4 ADD PUSH2 0xF37 SWAP2 SWAP1 PUSH2 0x12AC JUMP JUMPDEST PUSH1 0x20 PUSH1 0x40 MLOAD DUP1 DUP4 SUB DUP2 DUP7 GAS STATICCALL ISZERO DUP1 ISZERO PUSH2 0xF52 JUMPI RETURNDATASIZE PUSH0 DUP1 RETURNDATACOPY RETURNDATASIZE PUSH0 REVERT JUMPDEST POP POP POP POP PUSH1 0x40 MLOAD RETURNDATASIZE PUSH1 0x1F NOT PUSH1 0x1F DUP3 ADD AND DUP3 ADD DUP1 PUSH1 0x40 MSTORE POP DUP2 ADD SWAP1 PUSH2 0xF76 SWAP2 SWAP1 PUSH2 0x1495 JUMP JUMPDEST PUSH20 0xFFFFFFFFFFFFFFFFFFFFFFFFFFFFFFFFFFFFFFFF AND EQ PUSH2 0xFCC JUMPI PUSH1 0x40 MLOAD PUSH32 0x8C379A000000000000000000000000000000000000000000000000000000000 DUP2 MSTORE PUSH1 0x4 ADD PUSH2 0xFC3 SWAP1 PUSH2 0x1530 JUMP JUMPDEST PUSH1 0x40 MLOAD DUP1 SWAP2 SUB SWAP1 REVERT JUMPDEST DUP7 DUP7 PUSH0 PUSH1 0x1 PUSH0 DUP5 PUSH20 0xFFFFFFFFFFFFFFFFFFFFFFFFFFFFFFFFFFFFFFFF AND PUSH20 0xFFFFFFFFFFFFFFFFFFFFFFFFFFFFFFFFFFFFFFFF AND DUP2 MSTORE PUSH1 0x20 ADD SWAP1 DUP2 MSTORE PUSH1 0x20 ADD PUSH0 KECCAK256 PUSH0 DUP4 DUP2 MSTORE PUSH1 0x20 ADD SWAP1 DUP2 MSTORE PUSH1 0x20 ADD PUSH0 KECCAK256 PUSH1 0x40 MLOAD DUP1 PUSH1 0x40 ADD PUSH1 0x40 MSTORE SWAP1 DUP2 PUSH0 DUP3 ADD SLOAD DUP2 MSTORE PUSH1 0x20 ADD PUSH1 0x1 DUP3 ADD PUSH0 SWAP1 SLOAD SWAP1 PUSH2 0x100 EXP SWAP1 DIV PUSH20 0xFFFFFFFFFFFFFFFFFFFFFFFFFFFFFFFFFFFFFFFF AND PUSH20 0xFFFFFFFFFFFFFFFFFFFFFFFFFFFFFFFFFFFFFFFF AND PUSH20 0xFFFFFFFFFFFFFFFFFFFFFFFFFFFFFFFFFFFFFFFF AND DUP2 MSTORE POP POP SWAP1 POP PUSH0 DUP2 PUSH0 ADD MLOAD GT PUSH2 0x10CB JUMPI PUSH1 0x40 MLOAD PUSH32 0x8C379A000000000000000000000000000000000000000000000000000000000 DUP2 MSTORE PUSH1 0x4 ADD PUSH2 0x10C2 SWAP1 PUSH2 0x168E JUMP JUMPDEST PUSH1 0x40 MLOAD DUP1 SWAP2 SUB SWAP1 REVERT JUMPDEST DUP8 PUSH1 0x1 PUSH0 DUP13 PUSH20 0xFFFFFFFFFFFFFFFFFFFFFFFFFFFFFFFFFFFFFFFF AND PUSH20 0xFFFFFFFFFFFFFFFFFFFFFFFFFFFFFFFFFFFFFFFF AND DUP2 MSTORE PUSH1 0x20 ADD SWAP1 DUP2 MSTORE PUSH1 0x20 ADD PUSH0 KECCAK256 PUSH0 DUP12 DUP2 MSTORE PUSH1 0x20 ADD SWAP1 DUP2 MSTORE PUSH1 0x20 ADD PUSH0 KECCAK256 PUSH0 ADD DUP2 SWAP1 SSTORE POP DUP9 DUP11 PUSH20 0xFFFFFFFFFFFFFFFFFFFFFFFFFFFFFFFFFFFFFFFF AND CALLER PUSH20 0xFFFFFFFFFFFFFFFFFFFFFFFFFFFFFFFFFFFFFFFF AND PUSH32 0xD547E933094F12A9159076970143EBE73234E64480317844B0DCB36117116DE4 DUP12 PUSH1 0x40 MLOAD PUSH2 0x117C SWAP2 SWAP1 PUSH2 0x12AC JUMP JUMPDEST PUSH1 0x40 MLOAD DUP1 SWAP2 SUB SWAP1 LOG4 POP POP POP POP POP POP POP POP POP POP JUMP JUMPDEST PUSH1 0x2 PUSH0 SLOAD SUB PUSH2 0x11CB JUMPI PUSH1 0x40 MLOAD PUSH32 0x3EE5AEB500000000000000000000000000000000000000000000000000000000 DUP2 MSTORE PUSH1 0x4 ADD PUSH1 0x40 MLOAD DUP1 SWAP2 SUB SWAP1 REVERT JUMPDEST PUSH1 0x2 PUSH0 DUP2 SWAP1 SSTORE POP JUMP JUMPDEST PUSH1 0x1 PUSH0 DUP2 SWAP1 SSTORE POP JUMP JUMPDEST PUSH1 0x40 MLOAD DUP1 PUSH1 0x40 ADD PUSH1 0x40 MSTORE DUP1 PUSH0 DUP2 MSTORE PUSH1 0x20 ADD PUSH0 PUSH20 0xFFFFFFFFFFFFFFFFFFFFFFFFFFFFFFFFFFFFFFFF AND DUP2 MSTORE POP SWAP1 JUMP JUMPDEST PUSH0 DUP1 REVERT JUMPDEST PUSH0 PUSH20 0xFFFFFFFFFFFFFFFFFFFFFFFFFFFFFFFFFFFFFFFF DUP3 AND SWAP1 POP SWAP2 SWAP1 POP JUMP JUMPDEST PUSH0 PUSH2 0x1238 DUP3 PUSH2 0x120F JUMP JUMPDEST SWAP1 POP SWAP2 SWAP1 POP JUMP JUMPDEST PUSH2 0x1248 DUP2 PUSH2 0x122E JUMP JUMPDEST DUP2 EQ PUSH2 0x1252 JUMPI PUSH0 DUP1 REVERT JUMPDEST POP JUMP JUMPDEST PUSH0 DUP2 CALLDATALOAD SWAP1 POP PUSH2 0x1263 DUP2 PUSH2 0x123F JUMP JUMPDEST SWAP3 SWAP2 POP POP JUMP JUMPDEST PUSH0 PUSH1 0x20 DUP3 DUP5 SUB SLT ISZERO PUSH2 0x127E JUMPI PUSH2 0x127D PUSH2 0x120B JUMP JUMPDEST JUMPDEST PUSH0 PUSH2 0x128B DUP5 DUP3 DUP6 ADD PUSH2 0x1255 JUMP JUMPDEST SWAP2 POP POP SWAP3 SWAP2 POP POP JUMP JUMPDEST PUSH0 DUP2 SWAP1 POP SWAP2 SWAP1 POP JUMP JUMPDEST PUSH2 0x12A6 DUP2 PUSH2 0x1294 JUMP JUMPDEST DUP3 MSTORE POP POP JUMP JUMPDEST PUSH0 PUSH1 0x20 DUP3 ADD SWAP1 POP PUSH2 0x12BF PUSH0 DUP4 ADD DUP5 PUSH2 0x129D JUMP JUMPDEST SWAP3 SWAP2 POP POP JUMP JUMPDEST PUSH2 0x12CE DUP2 PUSH2 0x1294 JUMP JUMPDEST DUP2 EQ PUSH2 0x12D8 JUMPI PUSH0 DUP1 REVERT JUMPDEST POP JUMP JUMPDEST PUSH0 DUP2 CALLDATALOAD SWAP1 POP PUSH2 0x12E9 DUP2 PUSH2 0x12C5 JUMP JUMPDEST SWAP3 SWAP2 POP POP JUMP JUMPDEST PUSH0 DUP1 PUSH1 0x40 DUP4 DUP6 SUB SLT ISZERO PUSH2 0x1305 JUMPI PUSH2 0x1304 PUSH2 0x120B JUMP JUMPDEST JUMPDEST PUSH0 PUSH2 0x1312 DUP6 DUP3 DUP7 ADD PUSH2 0x1255 JUMP JUMPDEST SWAP3 POP POP PUSH1 0x20 PUSH2 0x1323 DUP6 DUP3 DUP7 ADD PUSH2 0x12DB JUMP JUMPDEST SWAP2 POP POP SWAP3 POP SWAP3 SWAP1 POP JUMP JUMPDEST PUSH2 0x1336 DUP2 PUSH2 0x1294 JUMP JUMPDEST DUP3 MSTORE POP POP JUMP JUMPDEST PUSH2 0x1345 DUP2 PUSH2 0x122E JUMP JUMPDEST DUP3 MSTORE POP POP JUMP JUMPDEST PUSH1 0x40 DUP3 ADD PUSH0 DUP3 ADD MLOAD PUSH2 0x135F PUSH0 DUP6 ADD DUP3 PUSH2 0x132D JUMP JUMPDEST POP PUSH1 0x20 DUP3 ADD MLOAD PUSH2 0x1372 PUSH1 0x20 DUP6 ADD DUP3 PUSH2 0x133C JUMP JUMPDEST POP POP POP POP JUMP JUMPDEST PUSH0 PUSH1 0x40 DUP3 ADD SWAP1 POP PUSH2 0x138B PUSH0 DUP4 ADD DUP5 PUSH2 0x134B JUMP JUMPDEST SWAP3 SWAP2 POP POP JUMP JUMPDEST PUSH0 DUP1 PUSH0 PUSH1 0x60 DUP5 DUP7 SUB SLT ISZERO PUSH2 0x13A8 JUMPI PUSH2 0x13A7 PUSH2 0x120B JUMP JUMPDEST JUMPDEST PUSH0 PUSH2 0x13B5 DUP7 DUP3 DUP8 ADD PUSH2 0x1255 JUMP JUMPDEST SWAP4 POP POP PUSH1 0x20 PUSH2 0x13C6 DUP7 DUP3 DUP8 ADD PUSH2 0x12DB JUMP JUMPDEST SWAP3 POP POP PUSH1 0x40 PUSH2 0x13D7 DUP7 DUP3 DUP8 ADD PUSH2 0x12DB JUMP JUMPDEST SWAP2 POP POP SWAP3 POP SWAP3 POP SWAP3 JUMP JUMPDEST PUSH2 0x13EA DUP2 PUSH2 0x122E JUMP JUMPDEST DUP3 MSTORE POP POP JUMP JUMPDEST PUSH0 PUSH1 0x20 DUP3 ADD SWAP1 POP PUSH2 0x1403 PUSH0 DUP4 ADD DUP5 PUSH2 0x13E1 JUMP JUMPDEST SWAP3 SWAP2 POP POP JUMP JUMPDEST PUSH0 DUP3 DUP3 MSTORE PUSH1 0x20 DUP3 ADD SWAP1 POP SWAP3 SWAP2 POP POP JUMP JUMPDEST PUSH32 0x43757272656E74204E465420686173206C697374656421000000000000000000 PUSH0 DUP3 ADD MSTORE POP JUMP JUMPDEST PUSH0 PUSH2 0x144D PUSH1 0x17 DUP4 PUSH2 0x1409 JUMP JUMPDEST SWAP2 POP PUSH2 0x1458 DUP3 PUSH2 0x1419 JUMP JUMPDEST PUSH1 0x20 DUP3 ADD SWAP1 POP SWAP2 SWAP1 POP JUMP JUMPDEST PUSH0 PUSH1 0x20 DUP3 ADD SWAP1 POP DUP2 DUP2 SUB PUSH0 DUP4 ADD MSTORE PUSH2 0x147A DUP2 PUSH2 0x1441 JUMP JUMPDEST SWAP1 POP SWAP2 SWAP1 POP JUMP JUMPDEST PUSH0 DUP2 MLOAD SWAP1 POP PUSH2 0x148F DUP2 PUSH2 0x123F JUMP JUMPDEST SWAP3 SWAP2 POP POP JUMP JUMPDEST PUSH0 PUSH1 0x20 DUP3 DUP5 SUB SLT ISZERO PUSH2 0x14AA JUMPI PUSH2 0x14A9 PUSH2 0x120B JUMP JUMPDEST JUMPDEST PUSH0 PUSH2 0x14B7 DUP5 DUP3 DUP6 ADD PUSH2 0x1481 JUMP JUMPDEST SWAP2 POP POP SWAP3 SWAP2 POP POP JUMP JUMPDEST PUSH32 0x54686973204E4654206973206E6F742062656C6F6E6720746F2063757272656E PUSH0 DUP3 ADD MSTORE PUSH32 0x7420616464726573732100000000000000000000000000000000000000000000 PUSH1 0x20 DUP3 ADD MSTORE POP JUMP JUMPDEST PUSH0 PUSH2 0x151A PUSH1 0x2A DUP4 PUSH2 0x1409 JUMP JUMPDEST SWAP2 POP PUSH2 0x1525 DUP3 PUSH2 0x14C0 JUMP JUMPDEST PUSH1 0x40 DUP3 ADD SWAP1 POP SWAP2 SWAP1 POP JUMP JUMPDEST PUSH0 PUSH1 0x20 DUP3 ADD SWAP1 POP DUP2 DUP2 SUB PUSH0 DUP4 ADD MSTORE PUSH2 0x1547 DUP2 PUSH2 0x150E JUMP JUMPDEST SWAP1 POP SWAP2 SWAP1 POP JUMP JUMPDEST PUSH32 0x4E6674207072696365206D757374206E656564206F766572207A65726F210000 PUSH0 DUP3 ADD MSTORE POP JUMP JUMPDEST PUSH0 PUSH2 0x1582 PUSH1 0x1E DUP4 PUSH2 0x1409 JUMP JUMPDEST SWAP2 POP PUSH2 0x158D DUP3 PUSH2 0x154E JUMP JUMPDEST PUSH1 0x20 DUP3 ADD SWAP1 POP SWAP2 SWAP1 POP JUMP JUMPDEST PUSH0 PUSH1 0x20 DUP3 ADD SWAP1 POP DUP2 DUP2 SUB PUSH0 DUP4 ADD MSTORE PUSH2 0x15AF DUP2 PUSH2 0x1576 JUMP JUMPDEST SWAP1 POP SWAP2 SWAP1 POP JUMP JUMPDEST PUSH32 0x43757272656E74206D61726B657420686173206E6F74206265656E2061707072 PUSH0 DUP3 ADD MSTORE PUSH32 0x6F7665642062792074686973206E667421000000000000000000000000000000 PUSH1 0x20 DUP3 ADD MSTORE POP JUMP JUMPDEST PUSH0 PUSH2 0x1610 PUSH1 0x31 DUP4 PUSH2 0x1409 JUMP JUMPDEST SWAP2 POP PUSH2 0x161B DUP3 PUSH2 0x15B6 JUMP JUMPDEST PUSH1 0x40 DUP3 ADD SWAP1 POP SWAP2 SWAP1 POP JUMP JUMPDEST PUSH0 PUSH1 0x20 DUP3 ADD SWAP1 POP DUP2 DUP2 SUB PUSH0 DUP4 ADD MSTORE PUSH2 0x163D DUP2 PUSH2 0x1604 JUMP JUMPDEST SWAP1 POP SWAP2 SWAP1 POP JUMP JUMPDEST PUSH32 0x43757272656E74204E465420686173206E6F206C697374656421000000000000 PUSH0 DUP3 ADD MSTORE POP JUMP JUMPDEST PUSH0 PUSH2 0x1678 PUSH1 0x1A DUP4 PUSH2 0x1409 JUMP JUMPDEST SWAP2 POP PUSH2 0x1683 DUP3 PUSH2 0x1644 JUMP JUMPDEST PUSH1 0x20 DUP3 ADD SWAP1 POP SWAP2 SWAP1 POP JUMP JUMPDEST PUSH0 PUSH1 0x20 DUP3 ADD SWAP1 POP DUP2 DUP2 SUB PUSH0 DUP4 ADD MSTORE PUSH2 0x16A5 DUP2 PUSH2 0x166C JUMP JUMPDEST SWAP1 POP SWAP2 SWAP1 POP JUMP JUMPDEST PUSH32 0x4E4654207072696365206E6F74206D6574210000000000000000000000000000 PUSH0 DUP3 ADD MSTORE POP JUMP JUMPDEST PUSH0 PUSH2 0x16E0 PUSH1 0x12 DUP4 PUSH2 0x1409 JUMP JUMPDEST SWAP2 POP PUSH2 0x16EB DUP3 PUSH2 0x16AC JUMP JUMPDEST PUSH1 0x20 DUP3 ADD SWAP1 POP SWAP2 SWAP1 POP JUMP JUMPDEST PUSH0 PUSH1 0x20 DUP3 ADD SWAP1 POP DUP2 DUP2 SUB PUSH0 DUP4 ADD MSTORE PUSH2 0x170D DUP2 PUSH2 0x16D4 JUMP JUMPDEST SWAP1 POP SWAP2 SWAP1 POP JUMP JUMPDEST PUSH32 0x4E487B7100000000000000000000000000000000000000000000000000000000 PUSH0 MSTORE PUSH1 0x11 PUSH1 0x4 MSTORE PUSH1 0x24 PUSH0 REVERT JUMPDEST PUSH0 PUSH2 0x174B DUP3 PUSH2 0x1294 JUMP JUMPDEST SWAP2 POP PUSH2 0x1756 DUP4 PUSH2 0x1294 JUMP JUMPDEST SWAP3 POP DUP3 DUP3 ADD SWAP1 POP DUP1 DUP3 GT ISZERO PUSH2 0x176E JUMPI PUSH2 0x176D PUSH2 0x1714 JUMP JUMPDEST JUMPDEST SWAP3 SWAP2 POP POP JUMP JUMPDEST PUSH0 PUSH1 0x60 DUP3 ADD SWAP1 POP PUSH2 0x1787 PUSH0 DUP4 ADD DUP7 PUSH2 0x13E1 JUMP JUMPDEST PUSH2 0x1794 PUSH1 0x20 DUP4 ADD DUP6 PUSH2 0x13E1 JUMP JUMPDEST PUSH2 0x17A1 PUSH1 0x40 DUP4 ADD DUP5 PUSH2 0x129D JUMP JUMPDEST SWAP5 SWAP4 POP POP POP POP JUMP JUMPDEST PUSH32 0x796F752068617665206E6F2070726F6365656473210000000000000000000000 PUSH0 DUP3 ADD MSTORE POP JUMP JUMPDEST PUSH0 PUSH2 0x17DD PUSH1 0x15 DUP4 PUSH2 0x1409 JUMP JUMPDEST SWAP2 POP PUSH2 0x17E8 DUP3 PUSH2 0x17A9 JUMP JUMPDEST PUSH1 0x20 DUP3 ADD SWAP1 POP SWAP2 SWAP1 POP JUMP JUMPDEST PUSH0 PUSH1 0x20 DUP3 ADD SWAP1 POP DUP2 DUP2 SUB PUSH0 DUP4 ADD MSTORE PUSH2 0x180A DUP2 PUSH2 0x17D1 JUMP JUMPDEST SWAP1 POP SWAP2 SWAP1 POP JUMP INVALID LOG2 PUSH5 0x6970667358 0x22 SLT KECCAK256 PUSH26 0xE85FA638EB411D040A74FF52795B552A2A1331317BDB2AD67437 EQ CALLDATALOAD MULMOD LOG0 PREVRANDAO PUSH5 0x736F6C6343 STOP ADDMOD XOR STOP CALLER "
				},
				"gasEstimates": {
					"creation": {
						"codeDepositCost": "1243000",
						"executionCost": "infinite",
						"totalCost": "infinite"
					},
					"external": {
						"buyItem(address,uint256)": "infinite",
						"cancelListing(address,uint256)": "infinite",
						"getListing(address,uint256)": "infinite",
						"getProceeds(address)": "2830",
						"i_owner()": "infinite",
						"listItem(address,uint256,uint256)": "infinite",
						"updateListing(address,uint256,uint256)": "infinite",
						"withDrawProceeds()": "infinite"
					}
				},
				"methodIdentifiers": {
					"buyItem(address,uint256)": "9f37092a",
					"cancelListing(address,uint256)": "b2ddee06",
					"getListing(address,uint256)": "88700d1c",
					"getProceeds(address)": "30cfeda9",
					"i_owner()": "dba6335f",
					"listItem(address,uint256,uint256)": "89bfd38f",
					"updateListing(address,uint256,uint256)": "f772adf1",
					"withDrawProceeds()": "c6890de5"
				}
			},
			"storageLayout": {
				"storage": [
					{
						"astId": 127,
						"contract": "contracts/NFTMarketPlace.sol:NFTMarketPlace",
						"label": "_status",
						"offset": 0,
						"slot": "0",
						"type": "t_uint256"
					},
					{
						"astId": 245,
						"contract": "contracts/NFTMarketPlace.sol:NFTMarketPlace",
						"label": "s_listing",
						"offset": 0,
						"slot": "1",
						"type": "t_mapping(t_address,t_mapping(t_uint256,t_struct(Listing)210_storage))"
					},
					{
						"astId": 249,
						"contract": "contracts/NFTMarketPlace.sol:NFTMarketPlace",
						"label": "s_proceeds",
						"offset": 0,
						"slot": "2",
						"type": "t_mapping(t_address,t_uint256)"
					}
				],
				"types": {
					"t_address": {
						"encoding": "inplace",
						"label": "address",
						"numberOfBytes": "20"
					},
					"t_mapping(t_address,t_mapping(t_uint256,t_struct(Listing)210_storage))": {
						"encoding": "mapping",
						"key": "t_address",
						"label": "mapping(address => mapping(uint256 => struct NFTMarketPlace.Listing))",
						"numberOfBytes": "32",
						"value": "t_mapping(t_uint256,t_struct(Listing)210_storage)"
					},
					"t_mapping(t_address,t_uint256)": {
						"encoding": "mapping",
						"key": "t_address",
						"label": "mapping(address => uint256)",
						"numberOfBytes": "32",
						"value": "t_uint256"
					},
					"t_mapping(t_uint256,t_struct(Listing)210_storage)": {
						"encoding": "mapping",
						"key": "t_uint256",
						"label": "mapping(uint256 => struct NFTMarketPlace.Listing)",
						"numberOfBytes": "32",
						"value": "t_struct(Listing)210_storage"
					},
					"t_struct(Listing)210_storage": {
						"encoding": "inplace",
						"label": "struct NFTMarketPlace.Listing",
						"members": [
							{
								"astId": 207,
								"contract": "contracts/NFTMarketPlace.sol:NFTMarketPlace",
								"label": "price",
								"offset": 0,
								"slot": "0",
								"type": "t_uint256"
							},
							{
								"astId": 209,
								"contract": "contracts/NFTMarketPlace.sol:NFTMarketPlace",
								"label": "seller",
								"offset": 0,
								"slot": "1",
								"type": "t_address"
							}
						],
						"numberOfBytes": "64"
					},
					"t_uint256": {
						"encoding": "inplace",
						"label": "uint256",
						"numberOfBytes": "32"
					}
				}
			},
			"userdoc": {
				"kind": "user",
				"methods": {
					"listItem(address,uint256,uint256)": {
						"notice": "1.detemine if the NFT is relist 2.detemine if the NFT is belong to current signer 3.the price of NFT is not allowed low than 0 4.detemine if market contract has been approved with the NFT"
					}
				},
				"version": 1
			}
		}
	}
}